:020000040800F2
:10000000485600205D640008613800086338000825
:1000100075380008793800088B38000800000000A7
:100020000000000000000000000000008F38000801
:100030009138000800000000933800083F320008A3
:100040007764000877640008776400087764000824
:100050007764000877640008776400087764000814
:100060007764000877640008776400087764000804
:1000700077640008776400087764000877640008F4
:1000800077640008776400087764000877640008E4
:1000900077640008776400087764000877640008D4
:1000A00077640008776400087764000877640008C4
:1000B00077640008776400087764000877640008B4
:1000C00077640008776400087764000877640008A4
:1000D0007764000877640008776400087764000894
:1000E0007764000877640008776400087764000884
:1000F0007764000877640008776400087764000874
:100100007764000877640008776400087764000863
:100110007764000877640008776400087764000853
:100120007764000877640008776400087764000843
:100130007764000877640008776400087764000833
:100140007764000877640008776400087764000823
:100150007764000877640008776400087764000813
:100160007764000877640008776400087764000803
:1001700077640008776400087764000877640008F3
:10018000776400087764000800F002F800F072F865
:100190000AA090E8000C82448344AAF10107DA45E2
:1001A00001D100F067F8AFF2090EBAE80F0013F0C2
:1001B000010F18BFFB1A43F00103184760A20000AB
:1001C00080A200000A444FF0000C10F8013B13F02D
:1001D000070408BF10F8014B1D1108BF10F8015BA0
:1001E000641E05D010F8016B641E01F8016BF9D193
:1001F00013F0080F1EBF10F8014BAD1C0C1B09D1EA
:100200006D1E58BF01F801CBFAD505E014F8016B5B
:1002100001F8016B6D1EF9D59142D6D370470000ED
:100220000023002400250026103A28BF78C1FBD8FF
:10023000520728BF30C148BF0B607047662909F0DC
:100240000C87752906F07281002070471FB509F0F0
:10025000FAFE07F0D7F804000020002109F024F886
:10026000401C60600020002109F008F8E0601FBD1C
:1002700010B510BD07F082FB1146FFF7E7FF02F053
:10028000A1FF07F0CFFD03B4FFF7F2FF03BC07F0B7
:10029000E3FD0000FA480068C088401C81B2F848BD
:1002A0000068C180F6480068C088042803DD00218A
:1002B000F3480068C180F24800680089401C81B2A0
:1002C000EF4800680181EE4800680089092803DDD5
:1002D0000021EB4800680181E94800684089401C22
:1002E00081B2E74800684181E54800684089B0F57F
:1002F000C87F03DB0021E24800684181E0480068D4
:100300008089401C81B2DE4800688181DC48006839
:100310008089B0F5FA7F03DB0021D948006881812C
:10032000D7480068C089401C81B2D5480068C181A7
:10033000D3480068C089B0F57A7F03DB0021D0483C
:100340000068C181704791ED000B80ED000B91EDCD
:10035000000B80ED020B91ED080B80ED040B91ED8D
:10036000080B80ED060B002280F8382091ED020B7F
:1003700080ED080B91ED140B80ED0A0B80F839200D
:100380009FEDC00B80ED0C0B70471FB52DED0C0BD6
:100390002DED028BBEB09FEDBB0B53EC102B9DEDF2
:1003A000400B51EC100B09F0E5FB7DD29DED420AAC
:1003B000DFEDB60AB4EEE00AF1EE10FA75DD4F9803
:1003C000D0ED310A9DED450A60EE800ACDED240A9C
:1003D0004F98D0ED310A9DED460A60EE800ACDEDD2
:1003E000230A4F98D0ED2F0A9DED430A20EE800A94
:1003F00090ED2D1ADDED230A00EEC10A8DED220AE3
:100400004F98D0ED300A9DED440A20EE800A90ED21
:100410002D1ADDED240A00EEC10A8DED210A4F9858
:10042000D0ED330A9DED490A20EE800A8DED0F0ACA
:100430000F9809F097FDCDE912014F98D0ED320ADF
:100440009DED220A20EE800A8DED0F0A0F9809F02B
:1004500089FDCDE910019DED120B53EC102B9DEDA4
:10046000100B51EC100B09F093FCCDE91E014F98D5
:10047000D0ED330A9DED480A20EE800A8DED0F0A7B
:100480000F9809F06FFDCDE912014F98D0ED320AB7
:100490009DED210A20EE800A8DED0F0A0F9809F0DC
:1004A00061FDCDE9100101E0FEE3FEE39DED120BDD
:1004B00053EC102B9DED100B51EC100B09F068FC68
:1004C000CDE91C014F9890ED040B8DED120B9DEDC5
:1004D000120B53EC102B9DED1E0B51EC100B09F081
:1004E0004BFACDE918014F9890ED040B8DED120BEE
:1004F0009DED120B53EC102B9DED1C0B51EC100BD2
:1005000009F03AFACDE9160101203B90429809F032
:1005100029FD9FED5F0B53EC102BCDE912019DEDF2
:10052000120B51EC100B09F025FB43D2229809F075
:1005300019FDCDE90C019DED0C0B08F029F98DEDAD
:100540000E0B9DED0E0B51EC100B08F0CFFE119031
:1005500009F008FD9FED500B53EC102BCDE9120173
:100560009DED120B51EC100B09F0CAF922D2219823
:1005700009F0F8FCCDE90C019DED0C0B08F008F931
:100580008DED0E0B9DED0E0B51EC100B08F0AEFE39
:10059000119009F0E7FC9FED400B53EC102BCDE9D7
:1005A00012019DED120B51EC100B09F0A9F901D2CB
:1005B00000203B903B9818B94E9890F8380058B1FD
:1005C0004F9890ED080B4E9880ED040B4F9890EDEE
:1005D000080B4E9880ED060B4F9890ED0A0B8DEDB1
:1005E000120B4E9890ED040B8DED100B9DED120B40
:1005F00053EC102B9DED100B51EC100B09F0BAFAD7
:1006000006D84F9890ED0A0B4E9880ED040B1AE037
:100610004F9890ED0C0B8DED120B4E9890ED040B56
:100620008DED100B9DED120B53EC102B9DED100B6F
:1006300051EC100B09F064F905D84F9890ED0C0BB4
:100640004E9880ED040B4F9890ED0A0B8DED120B38
:100650004E9890ED060B8DED100B9DED120B53ECAB
:10066000102B9DED100B51EC100B09F083FA17D8ED
:100670004F9890ED0A0B4E9880ED060B2BE0000092
:1006800060A100080000000000000000CDCC4C3E3E
:10069000333333333333D33F0AD7A3703D0AC73FD5
:1006A0004F9890ED0C0B8DED120B4E9890ED060BC4
:1006B0008DED100B9DED120B53EC102B9DED100BDF
:1006C00051EC100B09F01CF905D84F9890ED0C0B6C
:1006D0004E9880ED060B4F98D0F8D400119009F099
:1006E00041FCCDE912014E9890ED040B8DED100BFD
:1006F0009DED100B53EC102B9DED120B51EC100BDC
:1007000009F03AF90A4601464D9806C04F98D0F8CC
:10071000D400119009F026FCCDE912014E9890ED1D
:10072000060B8DED100B9DED100B53EC102B9DED7A
:10073000120B51EC100B09F01FF90A4601464D98B7
:10074000C0E902124F98D0F8B8000B9009F00AFCEB
:10075000CDE90C019DED1E0B53EC102B9DED0C0B08
:1007600051EC100B09F008F9CDE910014F98D0F8C1
:10077000D000099009F0F6FBCDE90C014E9890ED00
:10078000000B8DED080B9DED080B53EC102B9DED30
:10079000180B51EC100B09F0FBFACDE90A019DEDA5
:1007A0000C0B53EC102B9DED0A0B51EC100B09F0C8
:1007B000E3F8CDE90E019DED100B53EC102B9DEDF0
:1007C0000E0B51EC100B08F0C3FDCDE912014D9852
:1007D00090ED000B8DED100B9DED100B53EC102BDD
:1007E0009DED120B51EC100B08F0B2FD0A460146CC
:1007F0004D98C0E904124F98D0F8B8000B9009F05A
:10080000B1FBCDE90C019DED1C0B53EC102B9DEDC4
:100810000C0B51EC100B09F0AFF8CDE910014F981B
:10082000D0F8D000099009F09DFBCDE90C014E985D
:1008300090ED020B8DED080B9DED080B53EC102B8A
:100840009DED160B51EC100B09F0A2FACDE90A014F
:100850009DED0C0B53EC102B9DED0A0B51EC100B86
:1008600009F08AF8CDE90E019DED100B53EC102B29
:100870009DED0E0B51EC100B08F06AFDCDE9120155
:100880004D9890ED020B8DED100B9DED100B53EC80
:10089000102B9DED120B51EC100B08F059FD0A4680
:1008A00001464D98C0E9061201203A90429809F09D
:1008B00059FB1FED890B53EC102BCDE912019DED77
:1008C000120B51EC100B09F055F902D200203A90AE
:1008D00001E000203A904F98D0ED330A9DED4A0A8E
:1008E00020EE800A8DED0F0A0F9809F03BFBCDE951
:1008F00012014F98D0ED380A9DED4B0A20EE800A88
:1009000090ED311ADDED470A61EE200A90ED391ABB
:1009100000EEC10AD0ED3A0A20EE200A8DED0F0A52
:100920000F9809F01FFBCDE910019DED120B53EC60
:10093000102B9DED100B51EC100B09F029FACDE9AD
:1009400030014F9890ED100B8DED120B9DED120BB9
:1009500053EC102B9DED300B51EC100B09F00CF803
:10096000CDE92E013A9818B94E9890F8390028B17F
:100970004F9890ED140B4E9880ED0A0B4F9890ED28
:10098000160B8DED120B4E9890ED0A0B8DED100BA2
:100990009DED120B53EC102B9DED100B51EC100B39
:1009A00009F0E8F806D84F9890ED160B4E9880EDB8
:1009B0000A0B1AE04F9890ED180B8DED120B4E9824
:1009C00090ED0A0B8DED100B9DED120B53EC102BDF
:1009D0009DED100B51EC100B08F092FF05D84F98CD
:1009E00090ED180B4E9880ED0A0B429809F0BAFA78
:1009F0009FEDFE0B53EC102BCDE912019DED120B78
:100A000051EC100B09F0B6F82CD2429809F0AAFA72
:100A10009FEDF80B53EC102BCDE912019DED120B5D
:100A200051EC100B08F06CFF1CD24E9890ED0C0BA3
:100A30008DED120B1FEDED0B53EC102B9DED120BFA
:100A400051EC100B08F098FE0CD14C9800681490F3
:100A500009F088FACDE93C019FEDE80B4E9880ED56
:100A60000C0B5CE0429809F07DFA9FEDE00B53EC33
:100A7000102BCDE912019DED120B51EC100B08F07B
:100A80003FFF19D84E9890ED0C0B8DED120B9FED9A
:100A9000DB0B53EC102B9DED120B51EC100B08F0FF
:100AA0006BFE09D19FEDD70B4E9880ED0C0B9FED9F
:100AB000D50B8DED3C0B32E0429809F053FA9FEDD7
:100AC000CD0B53EC102BCDE912019DED120B51EC27
:100AD000100B09F04FF819D84E9890ED0C0B8DEDD6
:100AE000120B9FEDC60B53EC102B9DED120B51EC2E
:100AF000100B08F041FE09D19FEDC20B4E9880ED1E
:100B00000C0B9FEDC00B8DED3C0B08E09FEDBD0B7A
:100B10004E9880ED0C0B9FEDBB0B8DED3C0B4E9872
:100B200090ED0C0B8DED120B9DED120B51EC100B9B
:100B300008F0DCFB00EE100AB5EEC00AF1EE10FA88
:100B40007DDD4C9890ED010A4F98D0ED400A20EEE3
:100B5000200A8DED150A4F98D0ED2B0A9DED150A50
:100B6000F4EEC00AF1EE10FA05D24F9890ED2B0A80
:100B70008DED150A0EE04F98D0ED2C0A9DED150A6B
:100B8000F4EEC00AF1EE10FA04DD4F9890ED2C0A55
:100B90008DED150A249809F0E5F9CDE908019DEDE0
:100BA000080B07F089FD8DED0A0B9DED0A0B51EC4A
:100BB000100B08F09BFB08EE100A239809F0D2F9FD
:100BC000CDE908019DED080B07F076FD8DED0A0BD0
:100BD0009DED0A0B51EC100B08F088FB00EE100A9B
:100BE00028EE000A8DED0D0A0D9809F0BBF9CDE94C
:100BF00010014F98D0F8A800099009F0B3F9CDE999
:100C00000C014F98D0F8A400059009F0ABF9CDE99C
:100C10000801159809F0A6F9CDE904019DED3C0BFA
:100C200051EC100B08F062FB00EE100A4C98D0ED6E
:100C3000000A30EE600A4F98D0ED410A00E043E030
:100C400020EE200A8DED010A019809F08BF9CDE91B
:100C500002019DED040B53EC102B9DED020B51ECAA
:100C6000100B09F095F8CDE906019DED080B53EC4A
:100C7000102B9DED060B51EC100B08F069FBCDE934
:100C80000A019DED0C0B53EC102B9DED0A0B51EC62
:100C9000100B08F071FECDE90E019DED100B53EC29
:100CA000102B9DED0E0B01E0FEE3FEE351EC100B6B
:100CB00008F00AFCCDE912019DED120B51EC100B6E
:100CC00008F014FB4D9908644E9890ED0C0B8DEDD7
:100CD000120B9DED120B51EC100B08F007FB00EE10
:100CE000100A4F98D0ED420AB4EEE00AF1EE10FA85
:100CF00005DD4D9890ED100A8DED220A37E04C98F5
:100D000090ED010A4F98D0ED260A20EE200A8DEDD5
:100D1000150A4F98D0ED270A9DED150AF4EEC00A8A
:100D2000F1EE10FA05D24F9890ED270A8DED150AD5
:100D30000EE04F98D0ED280A9DED150AF4EEC00A9A
:100D4000F1EE10FA04DD4F9890ED280A8DED150AAA
:100D50004F98D0ED240A9DED420A70EE600A90EDA6
:100D6000251A9DED150A10EE810A8DED220A4F9885
:100D7000D0ED430A9DED220AF4EEC00AF1EE10FA1E
:100D800005D24F9890ED430A8DED220A0EE04F9860
:100D9000D0ED440A9DED220AF4EEC00AF1EE10FAFD
:100DA00004DD4F9890ED440A8DED220A4D9890EDA8
:100DB000040B8DED100B4F9890ED0E0B8DED0E0B7F
:100DC0009DED100B53EC102B9DED0E0B51EC100B09
:100DD00008F0D2FDCDE912019DED120B51EC100B84
:100DE00008F084FA15904D9810E00000666666667B
:100DF0006666D63FCDCCCCCCCCCCDC3F000000002E
:100E00000000F03F000000000000000090ED060B25
:100E10008DED100B4F9890ED0E0B8DED0E0B9DEDA3
:100E2000100B53EC102B9DED0E0B51EC100B08F03A
:100E3000A3FDCDE912019DED120B51EC100B08F052
:100E400055FA21904F98D0ED360A9DED210AF4EE27
:100E5000C00AF1EE10FA05D24F9890ED360A8DEDEA
:100E6000210A0EE04F98D0ED370A9DED210AF4EEED
:100E7000C00AF1EE10FA04DD4F9890ED370A8DEDBF
:100E8000210A4F98D0F8F400099009F06BF8CDE9E9
:100E90000A014E9890ED0A0B8DED080B9DED080BA5
:100EA00053EC102B9DED0A0B51EC100B08F064FD78
:100EB000CDE90E014F98D0F8EC00059009F052F8FA
:100EC000CDE906019DED300B53EC102B9DED060B8B
:100ED00051EC100B08F050FDCDE90A014F98D0F805
:100EE000F000039009F03EF8CDE906014E9890ED30
:100EF000080B8DED020B9DED020B53EC102B9DEDBD
:100F00002E0B51EC100B08F043FFCDE904019DEDD1
:100F1000060B53EC102B9DED040B51EC100B08F05D
:100F20002BFDCDE908019DED0A0B53EC102B9DED37
:100F3000080B51EC100B08F00BFACDE90C019DEDFC
:100F40000E0B53EC102B9DED0C0B51EC100B08F01D
:100F5000FFF9CDE910014F9890ED1A0B8DED0E0BB6
:100F60009DED0E0B53EC102B9DED100B51EC100B67
:100F700008F002FDCDE912019DED120B51EC100BB2
:100F800008F0B4F924904F98D0ED3E0A9DED240A64
:100F9000F4EEC00AF1EE10FA08D24F98D0F8F8003B
:100FA000149008F0DFFFCDE9380117E04F98D0ED3D
:100FB0003F0A9DED240AF4EEC00AF1EE10FA08DDB6
:100FC0004F98D0F8FC00149008F0CCFFCDE9380120
:100FD00004E0249808F0C6FFCDE938014F98D0ED21
:100FE000360A9DED150AF4EEC00AF1EE10FA08D2A9
:100FF0004F98D0F8D800149008F0B4FFCDE91A014A
:1010000017E04F98D0ED370A9DED150AF4EEC00AAF
:10101000F1EE10FA08DD4F98D0F8DC00149008F0DB
:10102000A1FFCDE91A0104E0159808F09BFFCDE976
:101030001A01002025908AE0229808F093FFCDE95C
:101040000601FE49259801EBC00090ED000B8DEDE7
:10105000040B9DED040B53EC102B9DED060B51EC96
:10106000100B08F089FCCDE90A01F4492598001D10
:1010700001EBC00090ED000B8DED060B1FED9F0BFB
:1010800053EC102B9DED060B51EC100B08F074FC8B
:10109000CDE908019DED0A0B53EC102B9DED080BDB
:1010A00051EC100B08F054F9CDE90E01E3492598F5
:1010B000083001EBC00090ED000B8DED0A0B1FED29
:1010C000AF0B53EC102B9DED0A0B51EC100B08F0FD
:1010D00053FCCDE90C019DED0E0B53EC102B9DED57
:1010E0000C0B51EC100B08F033F9CDE912019DED1A
:1010F000380B8DED0E0BD14925980C3001EBC0005B
:1011000090ED000B8DED0C0B9DED0E0B53EC102BA9
:101110009DED0C0B51EC100B08F02EFCCDE91001ED
:101120009DED120B53EC102B9DED100B51EC100BA1
:1011300008F00EF9CDE93C019DED3C0B26A9259860
:1011400001EBC00080ED000B2598401C25902598F0
:101150000428FFF671AF4F9890ED1C0B8DED120B2C
:101160009DED260B8DED100B9DED120B53EC102B0E
:101170009DED100B51EC100B08F0FCFC05D24F98C4
:1011800090ED1C0B8DED320B1DE04F9890ED1E0B7A
:101190008DED120B9DED260B8DED100B9DED120BC1
:1011A00053EC102B9DED100B51EC100B08F0A8FB2D
:1011B00005D24F9890ED1E0B8DED320B03E09DEDA7
:1011C000260B8DED320B4F9890ED1C0B8DED120B15
:1011D0009DED280B8DED100B9DED120B53EC102B9C
:1011E0009DED100B51EC100B08F0C4FC05D24F988C
:1011F00090ED1C0B8DED340B1DE04F9890ED1E0B08
:101200008DED120B9DED280B8DED100B9DED120B4E
:1012100053EC102B9DED100B51EC100B08F070FBF4
:1012200005D24F9890ED1E0B8DED340B03E09DED34
:10123000280B8DED340B4F9890ED1C0B8DED120BA0
:101240009DED2A0B8DED100B9DED120B53EC102B29
:101250009DED100B51EC100B08F08CFC05D24F9853
:1012600090ED1C0B8DED360B1DE04F9890ED1E0B95
:101270008DED120B9DED2A0B8DED100B9DED120BDC
:1012800053EC102B9DED100B51EC100B08F038FBBC
:1012900005D24F9890ED1E0B8DED360B03E09DEDC2
:1012A0002A0B8DED360B4F9890ED1C0B8DED120B2C
:1012B0009DED2C0B8DED100B9DED120B53EC102BB7
:1012C0009DED100B51EC100B08F054FC05D24F981B
:1012D00090ED1C0B8DED380B1DE04F9890ED1E0B23
:1012E0008DED120B9DED2C0B8DED100B9DED120B6A
:1012F00053EC102B9DED100B51EC100B08F000FB84
:1013000005D24F9890ED1E0B8DED380B03E09DED4F
:101310002C0B8DED380B9DED320B8DED120B9DEDF1
:10132000120B07F0B1FA8DED320B9DED340B8DED04
:10133000120B9DED120B07F0A7FA8DED340B9DED0E
:10134000360B8DED120B9DED120B07F09DFA8DED16
:10135000360B9DED380B8DED120B9DED120B07F04A
:1013600093FA8DED380B9DED320B8DED120B9FED49
:10137000340B53EC102B9DED120B51EC100B08F0BD
:10138000A3F8CDE932019DED340B8DED120B9FEDED
:101390002C0B53EC102B9DED120B51EC100B08F0A5
:1013A00093F8CDE934019DED360B8DED120B9FEDD9
:1013B000240B53EC102B9DED120B51EC100B08F08D
:1013C00083F8CDE936019DED380B8DED120B9FEDC5
:1013D0001C0B53EC102B9DED120B51EC100B08F075
:1013E00073F8CDE9380100202590BAE01649259818
:1013F0000C3001EBC00090ED000B8DED080B9FED64
:10140000130B53EC102B9DED080B51EC100B08F057
:10141000B3FACDE90C01219808F0A4FDCDE904014F
:1014200009492598083001EBC00090ED000B8DEDC7
:10143000020B9DED020B53EC102B0BE0E8A1000812
:10144000CCCCCCCCCC0C8C4068A1000800000000B7
:10145000000000009DED040B51EC100B08F08CFA1D
:10146000CDE90801FE49259801EBC00090ED000B85
:101470008DED000B1FED0B0B53EC102B9DED000BB6
:1014800051EC100B08F078FACDE90401F4492598E5
:10149000001D01EBC00090ED000B8DED000B9DEDEC
:1014A0001A0B53EC102B01E015E2A1E19DED000BAE
:1014B00051EC100B08F060FACDE902019DED040B30
:1014C00053EC102B9DED020B51EC100B07F040FF7D
:1014D000CDE906019DED080B53EC102B9DED060B9D
:1014E00051EC100B07F034FFCDE90A019DED0C0B18
:1014F00053EC102B9DED0A0B51EC100B07F028FF5D
:101500009FEDD80B53EC102BCDE90E019DED0E0B8A
:1015100051EC100B07F0D8FFCDE9100132A9259846
:1015200001EBC00090ED000B8DED0E0B9DED0E0B51
:1015300053EC102B9DED100B51EC100B07F008FF36
:10154000CDE912019DED120B51EC100B07F0CEFE10
:1015500001464D983030259A40F822102598401CBD
:10156000259025980428FFF641AF9DED180B4E9865
:1015700080ED000B9DED160B4E9880ED020B3B9815
:10158000E8BB4F9890ED060B8DED100B9DED1E0BFB
:1015900053EC102B9DED100B51EC100B08F0ECF9F7
:1015A000CDE912014E9890ED040B8DED100B9DEDE1
:1015B000100B53EC102B9DED120B51EC100B07F0A0
:1015C000C7FE0A4601464E98C0E904124F9890EDB6
:1015D000060B8DED100B9DED1C0B53EC102B9DEDB0
:1015E000100B51EC100B08F0C7F9CDE912014E9821
:1015F00090ED060B8DED100B9DED100B00E07AE0E9
:1016000053EC102B9DED120B51EC100B07F0A0FECC
:101610000A4601464E98C0E906124F9890ED0A0B13
:101620008DED120B4E9890ED040B8DED100B9DED92
:10163000120B53EC102B9DED100B51EC100B08F01E
:1016400099FA06D84F9890ED0A0B4E9880ED040B4E
:101650001AE04F9890ED0C0B8DED120B4E9890ED1B
:10166000040B8DED100B9DED120B53EC102B9DED2B
:10167000100B51EC100B08F043F905D84F9890ED82
:101680000C0B4E9880ED040B4F9890ED0A0B8DEDEE
:10169000120B4E9890ED060B8DED100B9DED120B7D
:1016A00053EC102B9DED100B51EC100B08F062FA6F
:1016B00006D84F9890ED0A0B4E9880ED060B1AE075
:1016C0004F9890ED0C0B8DED120B4E9890ED060B94
:1016D0008DED100B9DED120B53EC102B9DED100BAF
:1016E00051EC100B08F00CF905D84F9890ED0C0B4D
:1016F0004E9880ED060B3B98002804DD01214E98A2
:1017000080F8381003E000214E9880F838109DEDE5
:101710002E0B4E9880ED080B3A98E8BB4F9890ED51
:10172000120B8DED100B9DED300B53EC102B9DED3E
:10173000100B51EC100B08F01FF9CDE912014E9877
:1017400090ED0A0B8DED100B9DED100B53EC102B53
:101750009DED120B51EC100B07F0FAFD0A46014605
:101760004E98C0E90A124F9890ED160B8DED120BB2
:101770004E9890ED0A0B8DED100B9DED120B53EC76
:10178000102B9DED100B51EC100B08F0F3F908D85D
:101790004F9890ED160B00E01EE04E9880ED0A0B7E
:1017A0001AE04F9890ED180B8DED120B4E9890EDBE
:1017B0000A0B8DED100B9DED120B53EC102B9DEDD4
:1017C000100B51EC100B08F09BF805D84F9890EDDA
:1017D000180B4E9880ED0A0B3A98002804DD012181
:1017E0004E9880F8391003E000214E9880F83910A7
:1017F0004F98D0ED490A9DED420AF4EEC00AF1EE91
:1018000010FA14D24D9890ED0C0A8DED220A4D98E5
:1018100090ED0D0A8DED210A4D9890ED0E0A8DED9B
:10182000240A4D9890ED0F0A8DED230A2BE04F9876
:10183000D0ED200A9DED420A20EE800A8DED220AAD
:101840004F98D0ED210A9DED420A20EE800A8DEDE1
:10185000210A4F98D0ED220A9DED420A06E00000D1
:1018600068A10008000000000000004020EE800A8F
:101870008DED240A4F98D0ED230A9DED420A20EE0B
:10188000800A8DED230A4F98D0ED450A9DED220A7E
:1018900030EE800A4D9880ED080A4F98D0ED460A48
:1018A0009DED210A30EE800A4D9880ED090A4F988F
:1018B000D0ED470A9DED240A30EE800A4D9880ED68
:1018C0000A0A4F98D0ED480A9DED230A30EE800AAF
:1018D0004D9880ED0B0A3EB0BDEC028B10B010BDF0
:1018E00010B52DED068BB0EE409AF0EE609A0446EE
:1018F0009FEDFE0B53EC102B51EC190B07F0E4FDA0
:1019000041EC180B9FEDFB0B53EC102B51EC180B1B
:1019100007F01EFD41EC1A0B9FEDF80B53EC102B5A
:1019200008F028F91BD29FEDF30B53EC102B51EC70
:10193000180B07F00DFD41EC1A0B9FEDF20B53EC69
:10194000102B07F0DDFF0AD29FEDEA0B53EC102BB2
:1019500051EC180B07F0FCFCC4E9000103E09FED1B
:10196000EB0B84ED000BBDEC068B10BD00B5B9B0E0
:10197000E8480068C08800287DD101F06FFAE64889
:1019800090F82201E54908601721E54803F0D8FDE9
:1019900048B11722E249E34804F030FF0120DE4954
:1019A00081F8040103E00020DB4981F80401DA48F2
:1019B00090F8040100287DDDD74890F807018011D8
:1019C0002190D54890F8080180002090D24890F8E6
:1019D0000901D54991F8221008404FF6FF7101EA3C
:1019E00080201F90CC4890F80901CF4991F823102E
:1019F00008404110C84890F80A01CB4A92F82420C8
:101A0000104001EBC0102990C34890F80601C64968
:101A100091F820100840C04991F8051101EB002011
:101A2000199007F059FFCDE91A01BF4890ED100B4E
:101A30008DED180B9DED180B53EC102B9DED1A0B33
:101A400051EC100B07F098FF9FEDA80B53EC102BF7
:101A5000CDE91C019DED1C0B51EC100B07F034FD82
:101A6000CDE926019FEDA30B53EC102B9DED260B2A
:101A700051EC100B00E0AEE107F06AFC9FED9F0B0C
:101A800053EC102BCDE91C019DED1C0B51EC100B00
:101A900008F070F825D29FED970B53EC102B9DEDBD
:101AA000260B51EC100B07F053FC9FED960B53ECFB
:101AB000102B00E0F3E0CDE91C019DED1C0B51EC77
:101AC000100B07F01DFF0CD29FED8A0B53EC102B6F
:101AD0009DED260B51EC100B07F03AFCCDE92601E9
:101AE00003E09FED8A0B8DED260B9DED260B51EC4F
:101AF000100B07F0FBFB8849C1F8AC00084690F8D2
:101B00000701894991F8211008404101824890F865
:101B1000060101EBE0001B9007F0DEFECDE91C01A1
:101B2000814890ED120B8DED1A0B9DED1A0B53ECC5
:101B3000102B9DED1C0B51EC100B07F01DFFCDE998
:101B4000360178483B309DED360BFFF7C9FE7248F1
:101B500090ED500B8DED1C0B9DED1C0B51EC100B03
:101B600007F0C4FB6C49C1F8B000DDE92010014466
:101B70001F98084480B2199007F0AEFECDE91A0113
:101B8000694890ED140B8DED180B9DED180B53EC7F
:101B9000102B9DED1A0B51EC100B07F0EDFE9FED95
:101BA000530B53EC102BCDE91C019DED1C0B51EC9C
:101BB000100B07F089FCCDE926019FED5C0B53EC7F
:101BC000102B9DED260B51EC100B07F0C1FB9FED88
:101BD000590B53EC102BCDE91C019DED1C0B51EC66
:101BE000100B07F0C7FF23D29FED500B53EC102BC7
:101BF0009DED260B51EC100B07F0AAFB9FED410B5E
:101C000053EC102BCDE91C019DED1C0B51EC100B7E
:101C100007F076FE0CD29FED450B53EC102B9DED9B
:101C2000260B51EC100B07F093FBCDE9260103E0E6
:101C30009FED400B8DED260B9DED260B51EC100B0F
:101C400007F054FB3449C1F8B400299807F044FE6A
:101C5000CDE91C01344890ED160B8DED1A0B9DED6E
:101C60001A0B53EC102B9DED1C0B51EC100B07F0D5
:101C700083FECDE934012B4833309DED340BFFF763
:101C80002FFE254890ED4E0B8DED1C0B9DED1C0B92
:101C900051EC100B07F02AFB1F49C1F8B8001E4891
:101CA00090ED2B0A8DED1E0A90ED2C0A8DED1D0A8C
:101CB00090ED2E0A8DED1C0A90ED2D0A8DED1B0A7C
:101CC0001949D43100F5A470DDED1E1A9DED1D1AE1
:101CD000DDED1C0A9DED1B0A01F028F80E48D0F836
:101CE00048011B9008F03EF928E0000000000000C9
:101CF0000000F63F52B81E85EB51E83F9A9999993A
:101D00009999E93FCDCCCCCCCCCC00400000000070
:101D10000000F83F60A10008F8020020880241425C
:101D2000AC130020FD030020000000200000000094
:101D30000000E83F000000000000F03F9FEDFE0BB8
:101D400053EC102BCDE91C019DED1C0B51EC100B3D
:101D500007F0D6FD0FD2FA4890ED530ADFEDF90AED
:101D6000B4EEE00AF1EE10FA05D21FED0E0BF648C4
:101D700080ED080B21E0F248D0F848011B9008F0F4
:101D8000F1F89FEDED0B53EC102BCDE91C019DED0F
:101D90001C0B51EC100B07F0B3FD0ED2E84890ED90
:101DA000530ADFEDEA0AB4EEE00AF1EE10FA04DDC0
:101DB0009FEDE70BE44880ED080BE34890ED080B3E
:101DC0008DED2E0BE4480068408920B9DC4890ED89
:101DD000390A80ED3A0AE04800684089E8BBD848F3
:101DE00090ED3A0ADD48D0ED1E0A20EE200A8DED76
:101DF000250AD548D0ED0A0A9DED250A30EE600A85
:101E0000DFEDD70A20EE200AD0ED0B0A9FEDD51AA0
:101E100001EE600AD0ED0C0A9FEDD31A01EE600AC4
:101E20008DED310A9DED310ADFEDD00A20EE200A5A
:101E3000D0ED0B0A9FEDCE1A01EE200AD0ED0C0A70
:101E40009FEDCA1A01EE200ABD4880ED3C0ABE484B
:101E500090ED0B0A80ED0C0A00E02AE09DED310ABE
:101E600080ED0B0AB64890ED3C0ABC48D0ED1F0A45
:101E7000B4EEE00AF1EE10FA05DD90ED1F0AB0486D
:101E800080ED3B0A15E0AE4890ED3C0AB348D0ED3A
:101E9000200AB4EEE00AF1EE10FA05D290ED200A25
:101EA000A74880ED3B0A04E0A54890ED3C0A80ED90
:101EB0003B0AA9480068C08800287DD11FED630B4C
:101EC00053EC102B9DED2E0B51EC100B07F054FC36
:101ED0001ED19D4890ED060B8DED1C0B9FED9C0BCC
:101EE00053EC102B9DED1C0B51EC100B07F044FC38
:101EF0000ED11FED700B944880ED060B9048D0F882
:101F0000E4001E9008F02EF88F4AC2E904011FE099
:101F10009FED8F0B53EC102B9DED2E0B51EC100B06
:101F200007F02AFC14D1884890ED060B8DED1C0BB0
:101F30001FED800B53EC102B9DED1C0B51EC100B87
:101F400007F01AFC04D19FED820B7F4880ED060B51
:101F50007D4890ED020B8DED180B9DED180B53ECA9
:101F6000102B9FED840B51EC100B07F005FDCDE914
:101F70001C01754890ED000B8DED140B9DED140BBD
:101F800053EC102B9FED7D0B51EC100B07F0F4FC84
:101F9000CDE918016A48D0F8E400119007F0E2FF9B
:101FA000CDE91201684890ED040B8DED100B9DED0D
:101FB000100B53EC102B00E087E09DED120B51EC61
:101FC000100B07F0E5FE9FED6F0B53EC102BCDE9E6
:101FD00014019DED140B51EC100B07F0CDFCCDE975
:101FE00016019DED180B53EC102B9DED160B51ECCB
:101FF000100B07F0CDFECDE91A019DED1C0B53EC43
:10200000102B9DED1A0B51EC100B07F0C1FECDE922
:1020100026014D4890ED020B8DED180B9DED180B30
:1020200053EC102B9FED590B51EC100B07F0A4FC57
:10203000CDE91C01444890ED000B8DED140B9DED96
:10204000140B53EC102B9FED530B51EC100B07F0BE
:1020500093FCCDE918019DED260B53EC102B9FED61
:102060004F0B51EC100B07F087FCCDE916019DEDED
:10207000180B53EC102B9DED160B51EC100B07F0C9
:1020800067F9CDE91A019DED1C0B53EC102B9DED6A
:102090001A0B51EC100B07F05BF9294AC2E90A014F
:1020A000294890ED000B80ED020B9DED260B80ED95
:1020B000000B104690ED0A0B8DED1C0B9DED1C0BDB
:1020C00051EC100B07F012F9249023480068408966
:1020D00020B99DED250A1C4880ED0A0A1E480068BB
:1020E000C08838BB24983290154890ED3B0A8DED9E
:1020F000330A9DED2E0B80ED000B90ED530A8DED14
:102100001E0A90ED320A8DED1D0A90ED310A8DED1B
:102110001C0A90ED360A8DED1B0A90ED300A8DED0C
:102120001A0A90ED2F0A8DED190A90ED350A8DED02
:10213000180A37E078E000009A9999999999B93F7F
:10214000F8020020000020C3980400200000204373
:10215000000000000000000060A100080000002056
:10216000A2A2633C4BCDE9BF2329573F00C9A13E42
:10217000816FBC3E5BEE686224E5EA3FA6A1E55DA7
:10218000A939FDBF517F7D4754748C3FEEEBC7F9F1
:102190001F39D43F0209F61FF08DD73FEDEBC7F989
:1021A0001F39D43F90ED550A8DED170A90ED540A72
:1021B0008DED160A90ED520A8DED150A90ED000B8B
:1021C0008DED120BFD4BFE4A00F5AC7132A8DDED32
:1021D0001E5A9DED1D5ADDED1C4A9DED1B4ADDED9D
:1021E0001A3A9DED193ADDED182A9DED172ADDED1D
:1021F000161A9DED151A9DED120BFEF7C6F8F14863
:102200000068008980B9F04890ED5E0A80ED0C0A04
:1022100090ED5F0A80ED0D0A90ED600A80ED0E0AE8
:1022200090ED610A80ED0F0AE648006800890028F9
:102230007ED1E54890ED0C0AE448D0ED2C0AB4EECE
:10224000E00AF1EE10FA04DD90ED2C0A8DED250A7E
:1022500014E0DD4890ED0C0ADC48D0ED2D0AB4EE18
:10226000E00AF1EE10FA04D290ED2D0A8DED250A68
:1022700004E0D54890ED0C0A8DED250A259807F06D
:1022800071FECDE91C01D14890ED1C0B8DED1A0BB0
:102290009DED1A0B53EC102B9DED1C0B51EC100B0C
:1022A00007F06AFBC84AC2E902011046D0ED0D0AE8
:1022B000C64890ED2C0AF4EEC00AF1EE10FA04DDE7
:1022C00090ED2C0A8DED250A14E0BF4890ED0D0A23
:1022D000BE48D0ED2D0AB4EEE00AF1EE10FA04D2B9
:1022E00090ED2D0A8DED250A04E0B74890ED0D0A1A
:1022F0008DED250A259807F035FECDE91C01B34880
:1023000090ED1C0B8DED1A0B9DED1A0B53EC102B61
:102310009DED1C0B51EC100B07F02EFBAA4AC2E9F5
:102320000401104690ED0E0AA848D0ED2C0A00E0FA
:1023300071E0B4EEE00AF1EE10FA04DD90ED2C0A43
:102340008DED250A14E0A04890ED0E0A9F48D0EDCF
:102350002D0AB4EEE00AF1EE10FA04D290ED2D0A47
:102360008DED250A04E0984890ED0E0A8DED250AC2
:10237000259807F0F7FDCDE91C01944890ED1C0B62
:102380008DED1A0B9DED1A0B53EC102B9DED1C0BD4
:1023900051EC100B07F0F0FA8B4AC2E90601104627
:1023A00090ED0F0A8948D0ED2C0AB4EEE00AF1EE68
:1023B00010FA04DD90ED2C0A8DED250A14E0824818
:1023C00090ED0F0A8148D0ED2D0AB4EEE00AF1EE4F
:1023D00010FA04D290ED2D0A8DED250A04E07A481A
:1023E00090ED0F0A8DED250A259807F0BBFDCDE98C
:1023F0001C01764890ED1C0B8DED1A0B9DED1A0B10
:1024000053EC102B9DED1C0B51EC100B07F0B4FAA4
:102410006D4AC2E908016B480068C08800287CD179
:10242000694890ED020B8DED1A0B9FED690B53EC93
:10243000102B9DED1A0B51EC100B07F09DFACDE916
:102440001C019DED1C0B51EC100B07F001FA6249C9
:1024500008605D4890ED040B8DED1A0B9FED5C0B51
:1024600053EC102B9DED1A0B51EC100B07F084FA76
:10247000CDE91C019DED1C0B51EC100B07F0E8F9A8
:102480005549091D0860504890ED060B8DED1A0B5B
:102490009FED4F0B53EC102B9DED1A0B51EC100BD5
:1024A00007F06AFACDE91C019DED1C0B51EC100BF5
:1024B00007F0CEF9484908310860434890ED080B11
:1024C0008DED1A0B9FED420B53EC102B9DED1A0B6B
:1024D00051EC100B07F050FACDE91C019DED1C0BDF
:1024E00051EC100B07F0B4F93B490C31086035484A
:1024F0000068408988B9344890ED350A80ED100AAB
:1025000090ED2F0A80ED110A90ED300A80ED120A4D
:1025100090ED360A80ED130A00E00FE090ED310AED
:1025200080ED140A90ED320A80ED150A26492498B0
:102530008865084690ED3B0A80ED170A214800683F
:102540008089002875D103F041FB1F48C06D0D90B4
:1025500007F008FDCDE91C011B48806D0D9007F0C8
:1025600001FDCDE91A011848406D0D9007F0FAFC05
:10257000CDE918011448006D0D9007F0F3FCCDE98A
:1025800016011148C06C0D9007F0ECFCCDE9140168
:102590000D48806C0D9007F0E5FCCDE912010A486A
:1025A000406C0D9007F0DEFCCDE910010648006C90
:1025B0000D9007F0D7FCCDE90E010FE018010020C7
:1025C000D804002060A10008F802002000000020CC
:1025D0000000000000C0824034080040DDE91C011A
:1025E000CDE90C01DDE91A01CDE90A01DDE91801A7
:1025F000CDE90801DDE91601CDE90601DDE91401A7
:10260000CDE90401DDE91201CDE90201DDE91001A6
:10261000CDE900019DED0E0B53EC102BEFA1F74817
:1026200003F03CFFF54804F07FF880B21E9003F001
:10263000F3FAF3480068C088E8BBF24890ED5A0B03
:102640008DED1C0B9DED1C0B51EC100B06F04EFE9E
:102650002A90EC4890ED5C0B8DED1C0B9DED1C0B56
:1026600051EC100B06F042FE2B90E64890ED560B15
:102670008DED1C0B9DED1C0B51EC100B06F036FE86
:102680002C90E04890ED580B8DED1C0B9DED1C0B34
:1026900051EC100B06F02AFE2D90D94800684089B5
:1026A00048B99DED2A0AD74880ED180A9DED2B0AFE
:1026B00080ED190A00E007E09DED2C0A80ED1A0A72
:1026C0009DED2D0A80ED1B0ACD4800684089C0BBF6
:1026D00003F07CFACB48C06E159007F043FCCDE9BF
:1026E0001C01C848806E159007F03CFCCDE91A012A
:1026F000C448406E159007F035FCCDE91801C1487B
:10270000006E159007F02EFCCDE91601DDE91C01E5
:10271000CDE90401DDE91A01CDE90201DDE9180185
:10272000CDE900019DED160B53EC102BB6A1B3487B
:1027300003F0B4FEB14803F0F7FF80B21E9003F03F
:102740006BFAAF480068C08800287AD14FF4007156
:10275000B34803F089F810B3B24890ED000AA948D5
:1027600080ED1C0AB04890ED000AA64880ED1D0AD5
:10277000AE4890ED000AA34880ED1E0AAC4890EDEB
:10278000000AA04880ED1F0AAA4890ED000A9D4863
:1027900080ED200A01209B4981F81C0103E0002004
:1027A000984981F81C01974890F81C01002817DD12
:1027B000A14890F8350028B902F0C3FC01209E49D9
:1027C00081F8350003F002FA9CA18C4803F066FE04
:1027D0008A4803F0A9FF80B21E9003F01DFA07E0BB
:1027E000954890F8350018B10020934981F83500DC
:1027F0004FF400718A4803F05DF818B3944890EDE7
:10280000000A804880ED210A924890ED000A7D4838
:1028100080ED220A904890ED000A7A4880ED230A64
:102820008E4890ED000A774880ED240A8C4890EDA0
:10283000000A744880ED250A0120724981F81D01C3
:1028400004E07AE000206F4981F81D016D4890F89E
:102850001D01002817DD784890F8360028B902F0ED
:1028600071FC0120744981F8360003F0AFF97DA1B5
:10287000624803F013FE614803F056FF80B21E90D9
:1028800003F0CAF907E06C4890F8360018B1002050
:10289000694981F836004FF40071614803F030F85F
:1028A00010B3744890ED000A564880ED260A72482D
:1028B00090ED000A534880ED270A704890ED000A19
:1028C000504880ED280A6E4890ED000A4D4880ED92
:1028D000290A6C4890ED000A4A4880ED2A0A012036
:1028E000484981F81E0103E00020464981F81E0195
:1028F000444890F81E01002817DD4F4890F8370033
:1029000028B902F020FC01204B4981F8370003F080
:102910005DF95DA1394803F0C1FD384803F004FFBB
:1029200080B21E9003F078F907E0434890F8370032
:1029300018B10020404981F8370031480068C0894B
:10294000002848D14FF40071354803F05CF840B1DD
:10295000514800682B49C1F8F400012081F81F019B
:1029600003E00020274981F81F01264890F81F0145
:10297000002832DD304890F8380028B902F0BAFB60
:1029800001202D4981F838001E4890F8F400434991
:102990000860294890F9340023901A48D0F8F400D0
:1029A00010B10020229001E00120229022492298BB
:1029B00081F83400DDE92210884207D0239810B155
:1029C000012802D100E000E000BF00BF229818B14A
:1029D000012878D178E0F6E062E08AE06261636B1A
:1029E0003D25662C25662C25662C25662C25662C17
:1029F00025662C25662C25660D0A0000340500206E
:102A000060A10008F8020020636F6E74726F6C3D65
:102A100025662C25662C25662C25660D0A000000EF
:102A2000340900208C020020900200209402002033
:102A3000980200209C02002098040020726F6C6CA9
:102A40005F6368616E67655F4F4B0D0A00000000B1
:102A5000A8020020AC020020B0020020B402002036
:102A6000B80200207961775F6368616E67655F4FC8
:102A70004B0D0A00C4020020C8020020CC02002036
:102A8000D0020020D4020020616C745F6368616E24
:102A900067655F4F4B0D0A00E0020020880241424B
:102AA000DDE92201884201D002F022FB03F08EF81A
:102AB00088A18C4803F0F2FC8A4803F035FE80B20E
:102AC0001E9003F0A9F813E0DDE92201884201D04D
:102AD00002F00FFB03F07AF883A1824803F0DEFCDA
:102AE000804803F021FE80B21E9003F095F800BFED
:102AF00014E0804890F8380080B17E4890F93400A6
:102B000010B1012802D100E000E000BF00BFFF20AB
:102B1000784981F83400002081F838004FF40071C2
:102B2000754802F08EFF20B10120744981F8200120
:102B300003E00020714981F82001704890F82001DD
:102B4000002838DD6B4890F8390038B902F0EAFA0D
:102B500002F0F5FA0120674981F8390068480068F9
:102B60006649C1F8F800664841686448C0F8FC103E
:102B7000634881686148C0F8001103F027F85F4896
:102B8000D0F8000100905D48D0F8FC001E905B4832
:102B9000D0F8F8001D9002465AA152481E9B03F03F
:102BA0007DFC504803F0C0FD80B21E9003F034F865
:102BB00003F00CF807E04F4890F8390018B10020F6
:102BC0004C4981F839004FF400714B4802F056FF30
:102BD00020B10120494981F8210103E00020474943
:102BE00081F82101454890F82101002819DD41486C
:102BF00090F83A0028B902F0A3FA01203D4981F883
:102C00003A0003F094F9D620424908706D204870CC
:102C100015208870C870042003F0AFF903F087F91D
:102C200007E0344890F83A0018B10020314981F8A3
:102C30003A00FDF72FFB39B000BD10B536480068EB
:102C40000021016041608160C1604FF4D0712B4868
:102C500003F019FE8021274803F015FE2F4925486F
:102C60004030FDF770FBFF20224981F834009FEDD2
:102C70002C0B084680ED080B2B4890ED000A084607
:102C800080ED0A0A9FED260B80ED040B9FED240BCF
:102C900080ED060B00F0DEF802F049FB02F063FC69
:102CA00002F062FC02F0E4FC02F0E3FC02F001FE40
:102CB00002F025FE02F0A6FE02F0C2FE02F0DDFEEA
:102CC00002F0F8FE02F0D5FF03F084F903F0BAFA3F
:102CD00010BD70473E3E4C454431204F46460D0ADC
:102CE00000000000340500203E3E4C454431204F9A
:102CF0004E0D0A009804002034090020F80200203C
:102D00002805002069643D25752C25752C25750D39
:102D10000A000000700B002060A1000818010020CC
:102D2000000000000000000000000020B0EE402A7B
:102D3000D1ED002A72EE622A91ED013A62EE832A09
:102D4000B0EE620AD1ED022AF4EEC02AF1EE10FADA
:102D500004D2D1ED022AC0ED002A0DE0D1ED032A04
:102D6000F4EEC02AF1EE10FA04DDD1ED032AC0ED35
:102D7000002A01E080ED000AD1ED042A70EEE22A7B
:102D800091ED053A62EE832AB0EE620AD1ED062A91
:102D9000F4EEC02AF1EE10FA04D2D1ED062AC0ED0D
:102DA000012A0DE0D1ED072AF4EEC02AF1EE10FA67
:102DB00004DDD1ED072AC0ED012A01E080ED010A12
:102DC000D1ED082A71EE622A91ED093A62EE832A6A
:102DD000B0EE620AD1ED0A2AF4EEC02AF1EE10FA42
:102DE00004D2D1ED0A2AC0ED022A0DE0D1ED0B2A62
:102DF000F4EEC02AF1EE10FA04DDD1ED0B2AC0ED9D
:102E0000022A01E080ED020AD1ED0C2A71EEE22ADD
:102E100091ED0D3A62EE832AB0EE620AD1ED0E2AF0
:102E2000F4EEC02AF1EE10FA04D2D1ED0E2AC0ED74
:102E3000032A0DE0D1ED0F2AF4EEC02AF1EE10FACC
:102E400004DDD1ED0F2AC0ED032A01E080ED030A75
:102E50007047000010B502F069FA10BD10B50E21E0
:102E6000D54802F04EFA00283DD0D448D24909781E
:102E700080F82311D049497880F82411CE49897807
:102E800080F82511CC49C97880F82611CA490979FA
:102E900080F82711C849497980F82811C6498979ED
:102EA00080F82911C449C97980F82A11C249097AE0
:102EB00080F82B11C049497A80F82C11BE49897AD3
:102EC00080F82D11BC49C97A80F82E11BA49097BC6
:102ED00080F82F11B849497B80F830110120B7499B
:102EE00081F8220103E00020B44981F82201B348AF
:102EF00090F8220100287CDDB04890F82401AF4909
:102F000091F8231100EB012084B2AD48408A2040A3
:102F1000AB49B1F8C61088420EDDE04380B2A84943
:102F200089880843A649B1F9B8100844C0F34F0096
:102F30004FF6FF7101EA4004A148D0ED210A20B20A
:102F400000EE100AB8EEC00A20EE800A9B4880ED21
:102F5000330A90F82601994991F8251100EB0120D8
:102F600084B29748808A20409549B1F8C8108842B9
:102F70000EDDE04380B29249C98808439049B1F917
:102F8000BA100844C0F34F004FF6FF7101EA400445
:102F90008B48D0ED220A20B200EE100AB8EEC00A2B
:102FA00020EE800A854880ED340A90F82801834994
:102FB00091F8271100EB012084B28148C08A20409B
:102FC0007F49B1F8CA1088420EDDE04380B27C49E7
:102FD000098908437A49B1F9BC100844C0F34F008D
:102FE0004FF6FF7101EA40047548D0ED230A20B284
:102FF00000E0B8E000EE100AB8EEC00A20EE800A49
:103000006E4880ED350A90F82A016C4991F8291133
:1030100000EB012084B26A48008B20406849B1F877
:10302000CC1088420EDDE04380B2654949890843EF
:103030006349B1F9BE100844C0F34F004FF6FF7169
:1030400001EA40045E48D0ED240A20B200EE100AE6
:10305000B8EEC00A20EE800A584880ED360A90F893
:103060002C01564991F82B1100EB012084B25448F1
:10307000408B20405249B1F8CE1088420EDDE0432B
:1030800080B24F49898908434D49B1F9C0100844BD
:10309000C0F34F004FF6FF7101EA40044848D0EDFD
:1030A000250A20B200EE100AB8EEC00A20EE800A0F
:1030B000424880ED370A90F82E01404991F82D11D1
:1030C00000EB012084B23E48808B20403C49B1F89F
:1030D000D01088420EDDE04380B23949C9890843E7
:1030E0003749B1F9C2100844C0F34F004FF6FF71E1
:1030F00001EA40043248D0ED260A20B200EE100A60
:10310000B8EEC00A20EE800A2C4880ED380A90F80C
:1031100030012A4991F82F1100EB012084B2284890
:10312000C08B20402649B1F8D21088420EDDE04322
:1031300080B22349098A08432149B1F9C4100844DF
:10314000C0F34F004FF6FF7101EA40041C48D0ED78
:10315000270A20B200EE100AB8EEC00A20EE800A5C
:10316000164880ED390A164890ED280A1348D0ED2C
:10317000340A20EE200A80ED2F0A114890ED290A2A
:103180000E48D0ED330A20EE200A80ED300A0C48BC
:1031900090ED2A0A0948D0ED370A20EE200A80ED8A
:1031A000310A074890ED2B0A0448D0ED380A20EE8A
:1031B000200A80ED320A10BD700F0020F8020020B6
:1031C00000000020FFF739FD1F49481EB0F1807F45
:1031D00001D301201BE0481E4FF0E0225061501740
:1031E0000F22002807DA13071D0E184B00F00F04FA
:1031F000241F1D5503E013071C0E154B1C5400BF64
:1032000000204FF0E022906107201061002008B1FB
:1032100000BFFEE70CE00F4800680F4909688842CC
:1032200006D00C480068401C0A490860FEF79EFB67
:10323000F1E709480068401C07490860704700B57D
:10324000FFF7F7FF00BD00004090020018ED00E01E
:1032500000E400E04402002040020020016821F068
:10326000010101600021016041608160C160016174
:1032700021214161DB49884204D13D21D94A103ADC
:1032800091608CE0D7491831884205D14FF47461C0
:10329000D44A103A916082E0D2493031884205D157
:1032A0004FF47411CF4A103A916078E0CD4948311B
:1032B000884205D14FF07461CA4A103A91606EE0BD
:1032C000C8496031884204D1C749C64A103AD16022
:1032D00065E0C4497831884204D1C449C14A103AF2
:1032E000D1605CE0BF499031884204D1C049BD4AF9
:1032F000103AD16053E0BB49A831884205D14FF064
:103300003D51B84A103AD16049E0BA49884204D1E7
:103310003D21B84A083A116041E0B6491831884267
:1033200005D14FF47461B34A083A116037E0B149EE
:103330003031884205D14FF47411AE4A083A116019
:103340002DE0AC494831884205D14FF07461A94A5B
:10335000083A116023E0A7496031884204D1A249AC
:10336000A44A121F11601AE0A2497831884204D1A0
:103370009E49A04A121F116011E09E499031884277
:1033800004D19B499B4A121F116008E09949A8315A
:10339000884204D14FF03D51964A121F1160704788
:1033A00010B500220268944B1A40CC680B68234386
:1033B0004C6923438C692343CC6923430C6A234320
:1033C0004C6A23438C6A23434C6B23438C6B23430B
:1033D0001A430260426922F00702D1E90B34234309
:1033E0001A4342610B6943604B6883608B68C3601A
:1033F00010BD0021016041608160C16001614161D7
:103400008161C161016241628162C16201634163A4
:103410008163704721B1026842F00102026003E05B
:10342000026822F001020260704721B1026842F492
:103430000042026003E0026822F40042026070472A
:1034400021B1026842F02002026003E0026822F02B
:10345000200202607047416070470146486880B2B0
:10346000704722B1036843F40023036003E003685C
:1034700023F4002303600161704721B1026842F424
:103480008022026003E0026822F48022026070471A
:103490000AB1016100E0C1607047014600200A687E
:1034A00002F400220AB1012000E00020704701462A
:1034B00000200A6802F001020AB1012000E00020A9
:1034C0007047014600204A6902F03800704730B565
:1034D00003460A4600200024464DAB4202D2414931
:1034E000103901E04349103902F000550DB14C6824
:1034F00000E00C68414D2C4004EA02050DB10120AA
:1035000000E0002030BD02463A4B9A4202D23548D4
:10351000103801E03748103801F000531BB1374B29
:103520000B40C36002E0354B0B408360704710B521
:1035300001F080034BB122B1436943F08003436142
:1035400003E0436923F08003436180290BD02AB153
:10355000036801F01E042343036004E0036801F0E4
:103560001E04A343036010BD70B502460020002472
:103570000025204EB24202D21A4B103B01E01D4BF7
:10358000103B1F4E0E4036B11E2606EAD1241668A7
:1035900006EA040502E0566906F0800501F00056CF
:1035A0000EB15C6800E01C68144E344004EA010669
:1035B00016B10DB1012000E0002070BD02460D4B98
:1035C0009A4202D20748103801E00A48103801F048
:1035D00000531BB1094B0B40C36002E0074B0B408B
:1035E00083607047106002403D000020400F0020C3
:1035F00000003D20106402403F801CF07D0F7D0FD5
:103600003C0F3C0F10B504468C48844208D1012180
:10361000084600F01CFB0021012000F018FB5EE0D2
:103620008748844208D10121022000F010FB0021CC
:10363000022000F00CFB52E08248844208D10121B4
:10364000042000F004FB0021042000F000FB46E011
:103650007D48844208D10121082000F0F8FA0021B9
:10366000082000F0F4FA3AE07848844208D10121B9
:10367000102000F0ECFA0021102000F0E8FA2EE013
:103680007348844208D10121202000F0E0FA002193
:10369000202000F0DCFA22E06E48844208D10121AB
:1036A000402000F0D4FA0021402000F0D0FA16E0CB
:1036B0006948844208D10121802000F0C8FA002125
:1036C000802000F0C4FA0AE06448844207D1012156
:1036D000801500F0BCFA0021A01500F0B8FA10BD6A
:1036E000F0B50A4600210023002400BF3DE001257B
:1036F00005FA01F3156805EA03049C4234D1056814
:103700004F000326BE40B543056015794E00B54015
:103710000668354305601579012D02D01579022D13
:1037200016D185684F000326BE40B54385605579A4
:103730004E00B540866835438560456801268E4059
:10374000B5434560456896798E40B6B235434560CD
:10375000C5684F000326BE40B543C560D5794E000D
:10376000B540C6683543C560491C1029BFD3F0BDBC
:103770004FF6FF7101600021017141718171C171CA
:10378000704708B54FF480320092009A0A430092C5
:10379000009AC261C161009AC261C2690092C269A5
:1037A000009208BD0246002013690B400BB10120B6
:1037B00000E0002070470146086980B27047024669
:1037C000002053690B400BB1012000E0002070473E
:1037D0000146486980B27047018370474183704752
:1037E0000AB1018300E0418370474161704742693B
:1037F0004A4042617047F0B5002300244D07ED0EAA
:1038000002FA05F3CE1000F1200555F826504E07B8
:10381000F70E0F26BE40B543CF1000F1200646F844
:103820002750CE1000F1200555F8265045EA030434
:10383000CE1000F1200545F82640F0BD0000024002
:103840000004024000080240000C02400010024048
:103850000014024000180240001C024000200240F8
:1038600070470121C80200F0D0F9802009490860A2
:1038700000BFFEE700BFFEE70121C80200F0C5F966
:1038800080200449086000BFFEE700BFFEE77047E4
:1038900070477047002C0040FA48006840F0010073
:1038A000F84908600020F74908310860F5480068C9
:1038B000F5490840F3490860F448091D0860081FED
:1038C000006820F48020091F08600020ED490C31B9
:1038D000086070470021EB4A921C11701146087075
:1038E000704710B501460022002300204A11012A2A
:1038F00002D1E44C236808E0022A03D1E14C703481
:10390000236802E0DF4C7434236801F01F020124B5
:1039100094401C400CB1012000E0002010BD38B5DF
:10392000002000900024002500BF3120FFF7D9FFC0
:1039300005460098401C00900098B0F5A06F01D09B
:10394000002DF2D03120FFF7CCFF08B1012400E0B8
:103950000024204638BD01460020CA4A106820F0E5
:10396000F80040EAC10010607047C949086070471C
:103970000021C44A703211701170012802D004284D
:103980000AD104E00121BF4A7032117005E005211F
:10399000BC4A7032117000E000BF00BF7047BD49E3
:1039A0000860704770B5049C41EA82150126C6EB99
:1039B000530645EA0645054345EA0465B14E361D02
:1039C000356070BDB24908667047820142EA0172F3
:1039D000AC4B84331A607047AD4988667047AC4978
:1039E000C864704702460020A64B0833186820F0D0
:1039F000EC6042EA01031843A24B08331860704799
:103A0000024600209F4B0833186820F0784042EAB5
:103A1000010318439B4B0833186070470146002090
:103A2000984A0832106820F003000843106070477D
:103A300094480830006800F00C00704701460020F0
:103A4000904A0832106820F0F00008431060704778
:103A5000014600208B4A0832106820F4E0500843E9
:103A60001060704701460020864A0832106820F432
:103A7000604040EAC10010607047F0B500210022AC
:103A800000240225002602237E4F08373F6807F0F6
:103A90000C0121B1042905D0082937D105E07E4F5A
:103AA000076036E07D4F076033E0764F3F1D3F688B
:103AB000C7F38056734F3F1D3F6807F03F036EB159
:103AC000764FB7FBF3F7DFF8BCC10CF1040CDCF860
:103AD00000C0CCF3881C07FB0CF40CE06E4FB7FB66
:103AE000F3F7DFF8A0C10CF1040CDCF800C0CCF354
:103AF000881C07FB0CF4634F3F1D3F68C7F3014769
:103B00007F1C7D00B4FBF5F7076002E0624F0760A1
:103B100000BF00BF5B4F08373F6807F0F00109099D
:103B20005F4F7A5C0768D7404760564F08373F6859
:103B300007F4E051890A5A4F7A5C4768D74087609A
:103B4000504F08373F6807F46041490B544F7A5C87
:103B50004768D740C760F0BD002100F44072B2F55D
:103B6000407F0AD1474A0832116821F4F8114D4AC2
:103B700002401143434A08321160424A70321268CF
:103B8000C0F30B031A433F4B70331A60704741492F
:103B90004439086070473F494039086070474249DE
:103BA0000860704739B1374A303212680243354BEA
:103BB00030331A6006E0334A303212688243314BA8
:103BC00030331A60704739B12E4A343212680243DA
:103BD0002C4B34331A6006E02A4A3432126882438E
:103BE000284B34331A60704739B1264A383212688C
:103BF0000243244B38331A6006E0224A38321268F6
:103C00008243204B38331A60704739B11D4A403225
:103C1000126802431B4B40331A6006E0194A4032D7
:103C200012688243174B40331A60704739B1154A06
:103C3000443212680243134B44331A6006E0114ABF
:103C40004432126882430F4B44331A60704739B1D3
:103C50000C4A1032126802430A4B10331A6006E015
:103C6000084A103212688243064B10331A607047BC
:103C7000E1B1044A143212680243024B14331A6051
:103C800019E0000000380240FFFFF6FE103000246B
:103C900000004742800E47420024F40000127A00E0
:103CA00048020020FFFCFF0F5C0147425B4A12689C
:103CB00082435A4B1A60704739B1584A121D126834
:103CC0000243564B1B1D1A6006E0544A121D12682F
:103CD0008243524B1B1D1A60704739B14F4A0C3258
:103CE000126802434D4B0C331A6006E04B4A0C320B
:103CF00012688243494B0C331A60704739B1474A06
:103D0000103212680243454B10331A6006E0434AF2
:103D1000103212688243414B10331A60704739B138
:103D20003E4A3C32126802433C4B3C331A6006E088
:103D30003A4A3C3212688243384B3C331A6070472F
:103D400039B1364A403212680243344B40331A606C
:103D500006E0324A403212688243304B40331A60E8
:103D6000704739B12D4A4432126802432B4B443319
:103D70001A6006E0294A443212688243274B4433D2
:103D80001A60704739B1254A4C3212680243234BFE
:103D90004C331A6006E0214A4C32126882431F4BB2
:103DA0004C331A60704739B11C4A503212680243D2
:103DB0001A4B50331A6006E0184A50321268824398
:103DC000164B50331A60704739B1144AD21F12781B
:103DD0000243124BDB1F1A7006E0104AD21F127802
:103DE00082430E4BDB1F1A7070470C48603000682E
:103DF00040F080700949603108607047014600203A
:103E0000064A083A12680A400AB1012000E0002080
:103E100070470249891F087070470000143802403B
:103E200010B50446FE48844208D101210846FFF738
:103E300065FF00210120FFF761FF9DE0B4F1804F95
:103E400008D101210846FFF748FF00210120FFF7B4
:103E500044FF91E0F348844208D101210220FFF79A
:103E60003CFF00210220FFF738FF85E0EE48844246
:103E700008D101210420FFF730FF00210420FFF7C3
:103E80002CFF79E0E948844208D101210820FFF79E
:103E900024FF00210820FFF720FF6DE0E448844262
:103EA00008D101211020FFF718FF00211020FFF793
:103EB00014FF61E0DF48844208D101212020FFF790
:103EC0000CFF00212020FFF708FF55E0DA4884426C
:103ED00008D101210220FFF711FF00210220FFF786
:103EE0000DFF49E0D548844209D101210804FFF7BC
:103EF00005FF00214FF48030FFF700FF3CE0D04881
:103F0000844209D101214804FFF7F8FE00214FF453
:103F10000030FFF7F3FE2FE0CA48844209D10121A7
:103F20008804FFF7EBFE00214FF48020FFF7E6FE48
:103F300022E0C548844208D101214020FFF7CDFE90
:103F400000214020FFF7C9FE16E0C048844208D196
:103F500001218020FFF7C1FE00218020FFF7BDFE78
:103F60000AE0BB48844207D101218015FFF7B5FE66
:103F70000021A015FFF7B1FE10BD00220288A84B5A
:103F800098420ED0AC4B98420BD0B0F1804F08D085
:103F9000A44B984205D0A44B984202D0A34B984220
:103FA00004D14FF68F731A404B881A43A04B9842A6
:103FB00007D0A04B984204D04FF6FF431A400B891C
:103FC0001A4302804B68C3620B880385944B984266
:103FD00002D0994B984201D18B7A038601238382C8
:103FE00070474FF0FF314160002101800181418025
:103FF000817270470185828270470A4600210188DC
:104000004FF68F731940114301807047416270472A
:10401000C16270470146486A70470146088D704783
:1040200021B1028842F00202028004E002884FF6C9
:10403000FD731A400280704721B1028842F00402E9
:10404000028004E002884FF6FB731A40028070473A
:1040500021B1028842F08002028004E002884FF61B
:104060007F731A400280704702884FF6F7731A4038
:10407000028002880A430280704702884FF6FF439D
:104080001A40028002880A430280704721B10288E8
:1040900042F00102028004E002884FF6FE731A40EB
:1040A0000280704770B5002400220023058C4FF673
:1040B000FE7635400584028C8388048B4FF68F751D
:1040C0002C40B51E2C400D882C43751E2A408D892E
:1040D0002A434D882A43524DA84202D0564DA84249
:1040E00013D14FF6F7752A40CD892A434FF6FB7559
:1040F0002A408D882A434FF6FF652B404FF6FF5527
:104100002B400D8A2B434D8A2B43838004838D687B
:104110004563028470BD70B5002400220023058C25
:104120004FF6EF7635400584028C8388048B48F681
:10413000FF752C404FF6FF452C400D884FF6FF765B
:1041400006EA05252C434FF6DF752A408D8906EADD
:1041500005152A434D8806EA05152A43304DA84225
:1041600002D0354DA8421DD14FF67F752A40CD892A
:104170004FF6FF7606EA05152A434FF6BF752A402B
:104180008D8806EA05152A434FF6FF352B404FF27E
:10419000FF752B400D8A06EA85052B434D8A06EAFA
:1041A00085052B43838004838D688563028470BDFD
:1041B00070B5002400220023058C4FF6FF663540C1
:1041C0000584028C8388848B4FF68F752C404FF6C4
:1041D000FC752C400D882C434FF6FF552A408D89E5
:1041E0004FF6FF7606EA05252A434D8806EA05259F
:1041F0002A430B4DA84202D00F4DA84238D14FF2AE
:10420000FF752A40CD894FF6FF7606EA05252A4339
:104210004FF6FF352A408D8806EA05252A4319E026
:10422000000001400004004000080040000C004075
:104230000010004000140040000401400040014014
:10424000004401400048014000180040001C0040AC
:10425000002000404EF6FF752B404DF6FF752B40B9
:104260000D8A06EA05152B434D8A06EA05152B43F0
:10427000838084838D68C563028470BD70B500221D
:1042800000230024058C4EF6FF7635400584038C10
:104290008488828B48F6FF752A404FF6FF452A40F6
:1042A0000D884FF6FF7606EA05252A434DF6FF7581
:1042B0002B408D8906EA05352B434D8806EA0535E6
:1042C0002B43FE4DA84202D0FD4DA84208D14BF62B
:1042D000FF752C400D8A4FF6FF7606EA85152C43B4
:1042E000848082838D680564038470BD0021018011
:1042F0004180818081608181C181018241827047DA
:1043000070B50346002000241846183001258D4062
:10431000ACB21D8CA5431D8409B108290AD100EB5C
:10432000610005684FF68F763540056005681543D6
:1043300005600FE00D1FC5F34E052844056848F6DB
:10434000FF763540056005684FF6FF7606EA0226DF
:104350003543056070BD4163704781637047C16339
:104360007047016470470A460021018B4FF68F7336
:1043700019401143018370470A460021018B48F61A
:10438000FF7319404FF6FF7303EA022319430183B9
:1043900070470A460021818B4FF68F7319401143F5
:1043A000818370470A460021818B48F6FF731940CC
:1043B0004FF6FF7303EA02231943818370470A46CD
:1043C0000021018B4FF6F7731940114301837047A9
:1043D0000A460021018B4FF2FF7319404FF6FF731D
:1043E00003EA02231943018370470A460021818BA7
:1043F0004FF6F77319401143818370470A46002135
:10440000818B4FF2FF7319404FF6FF7303EA0223CB
:104410001943818370470A460021018B4FF6FB73D5
:1044200019401143018370470A460021018B4FF662
:10443000FF3319404FF6FF7303EA02231943018348
:1044400070470A460021818B4FF6FB7319401143D8
:10445000818370470A460021818B4FF6FF33194054
:104460004FF6FF7303EA02231943818370470A461C
:104470000021018B4FF67F73194011430183704770
:104480000A460021018BC1F30E014FF6FF7303EAC8
:1044900002231943018370470A460021818B4FF69E
:1044A0007F7319401143818370470A460021818B35
:1044B000C1F30E014FF6FF7303EA02231943818310
:1044C00070470A460021018C4FF6FD7319401143D5
:1044D000018470470A460021018C4FF6F77319409A
:1044E0001143018470470A460021018C4FF6DF73A7
:1044F00019404FF6FF7303EA021319430184704712
:104500000A460021018C4FF67F7319404FF6FF7366
:1045100003EA02131943018470470A460021018C03
:104520004FF6FF5319404FF6FF7303EA0223194376
:10453000018470470A460021018C4FF2FF73194035
:104540004FF6FF7303EA02231943018470470A46BA
:104550000021018C4DF6FF7319404FF6FF7303EAFB
:10456000023319430184704730B5002301248C4085
:10457000A3B2048C9C430484048C02FA01F5ADB20E
:104580002C43048430BD30B5002304248C40A3B2F6
:10459000048C9C430484048C02FA01F5ADB22C43D4
:1045A000048430BD828B4FF2FF331A408283828BAA
:1045B0004FF6FF7303EA01231A4382837047F0B575
:1045C0000C461546002100220026078C4EF6FF7C83
:1045D00007EA0C070784818B028C4FF6FF7707EA06
:1045E000043640F6FF4739404FF6FF7707EA0527C4
:1045F00039434FF6FF7707EA0337394345F6FF772C
:104600003A4046F480573A4381830284F0BD828B5E
:104610004FF6F3731A408283828B0A43828370477A
:10462000F0B50C461546002100220026078C4FF6F7
:10463000FF6C07EA0C070784818B028C4FF6FF772B
:1046400007EA04264FF60C7739404FF6FF7707EA62
:1046500003172F4339434FF2FF573A4046F4807710
:104660003A4381830284F0BD028B4FF2FF331A403C
:104670000283028B4FF6FF7303EA01231A4302837E
:104680007047F0B50C461546002100220026078C25
:104690004FF6EF7C07EA0C070784018B028C4FF67C
:1046A000FF7707EA041640F6FF4739404FF6FF77D9
:1046B00007EA033739434FF6FF7703E00000014074
:1046C0000004014007EA052739434FF65F773A4077
:1046D00046F010073A4301830284F0BD028B4FF687
:1046E000F3731A400283028B0A4302837047F0B5CA
:1046F0000C46154600210022068C4FF6FE773E4000
:104700000684018B028C4FF60C7631407E1C06EA43
:1047100003162E4331434FF6F576324044F001063E
:10472000324301830284F0BD70B505460C462088F3
:1047300050B92389A28861882846FFF7D8FFE1880D
:104740002846FFF7CBFF25E0208804280AD12389DB
:10475000A28861882846FFF794FFE1882846FFF782
:1047600083FF17E0208808280AD12389A28861885E
:104770002846FFF755FFE1882846FFF748FF09E084
:104780002389A28861882846FFF719FFE188284617
:10479000FFF708FF70BD0021018041800121818069
:1047A0000021C180018170472DE9F04105460C468A
:1047B00000260127608808B9022600E00026A088AC
:1047C000012801D1022700E001272088A0B9238910
:1047D000A28861882846FFF78AFFE1882846FFF70C
:1047E0007DFF23893A4631462846FFF74AFFE18894
:1047F0002846FFF739FF13E02389A28861882846FD
:10480000FFF73FFFE1882846FFF72EFF23893A464E
:1048100031462846FFF76BFFE1882846FFF75EFF29
:10482000BDE8F0810146486B70470146886B7047D0
:104830000146C86B70470146086C70470A884B8870
:104840001A438B881A43CB881A430B891A434B8926
:104850001A438B891A43A0F8442070470021018035
:1048600041808180C180018141818181704731B166
:10487000B0F8442042F40042A0F8442005E0B0F82B
:104880004420C2F30E02A0F84420704721B1828870
:1048900042F00402828004E082884FF6FB731A40E3
:1048A0008280704721B1828842F00102828004E058
:1048B00082884FF6FE731A40828070471AB183894E
:1048C0000B43838102E083898B438381704781821C
:1048D000704702460020138A0B400BB1012000E014
:1048E00000207047CA430282704730B5024600205C
:1048F00000230024158A05EA0103958905EA0104CD
:1049000013B10CB1012000E0002030BDCA43028287
:10491000704741EA0203A0F8483070471AB1838912
:104920000B43838102E083898B438381704721B1EC
:10493000828842F00802828004E082884FF6F77392
:104940001A408280704701894FF6F8721140018148
:1049500070470A46002101894FF68F7319401143B1
:104960000181704730B504460D4629462046FFF7C1
:10497000F0FF208940F00700208130BD2DE9F04193
:1049800004460D4616461F46602D06D13B460122C1
:1049900031462046FFF775FE05E03B4601223146D1
:1049A0002046FFF7A4FE29462046FFF7D2FF2089C4
:1049B00040F007002081BDE8F08130B50C460021B1
:1049C0000189C9B24FF6FF7505EA03251543254352
:1049D0002943018130BD2DE9F04105460E461746B9
:1049E0009846002443463A4631462846FFF7E5FFFD
:1049F0002C894FF6F870044044F007044FF68F708E
:104A0000044044F070042C81BDE8F081F0B5044608
:104A10000D4616461F463B46324629462046FFF7BE
:104A2000CCFF208940F480402081F0BD82884FF681
:104A30008F731A40828082880A438280704702897D
:104A40004FF6F8731A40028102890A4302817047C7
:104A500002894FF67F731A40028102890A4302815C
:104A60007047F0B50C4615461E4600210022002373
:104A70000189028B038C4FF6F877394021434FF6BA
:104A8000FC473A4040F201173A434FF6DD773B408E
:104A90004FF6FF7707EA06172F433B430181028356
:104AA0000384F0BD21B1828842F08002828004E05C
:104AB00082884FF67F731A4082807047A0F85010AA
:104AC0007047000010B50446F748844208D1012120
:104AD0001020FFF713F900211020FFF70FF93EE037
:104AE000F248844209D101214804FFF7F6F8002179
:104AF0004FF40030FFF7F1F831E0ED48844209D17E
:104B000001218804FFF7E9F800214FF48020FFF726
:104B1000E4F824E0E748844209D10121C804FFF702
:104B2000DCF800214FF40020FFF7D7F817E0E24847
:104B3000844209D101210805FFF7CFF800214FF485
:104B40008010FFF7CAF80AE0DC48844207D101214F
:104B50002020FFF7D3F800212020FFF7CFF810BD69
:104B60002DE9FF4705460E460024A14600BFA0469A
:104B7000B08900B100BF2C8A24F44054F08804436B
:104B80002C82AC8941F20C608443B088318908439F
:104B9000718908430443AC81AC8A24F44074B08921
:104BA0000443AC826846FEF768FFBF48854202D0E6
:104BB000C248854202D1DDF80C9001E0DDF8089092
:104BC000A88900F4004040B109EBC90000EB0910CE
:104BD00031684900B0FBF1F707E009EBC90000EBD1
:104BE000091031688900B0FBF1F76420B7FBF0F0E1
:104BF00004012009642101FB1078A88900F4004019
:104C000040B1322000EBC800B0FBF1F000F007002B
:104C1000044308E0322000EB08106421B0FBF1F0FF
:104C200000F00F0004432C81BDE8FF874FF41651BC
:104C3000016000218180C18001810C21418100211E
:104C40008181704710B502460020108A20F4706000
:104C50000B884C8823438C882343CC8823431843F8
:104C6000108210BD0021018041808180C180704789
:104C700021B1828942F40052828104E082894DF69A
:104C8000FF731A4082817047028B02F47F420283D5
:104C9000028B0A430283704721B1828942F40042A9
:104CA000828103E08289C2F30E028281704721B1C2
:104CB000828A42F40062828204E0828A4FF2FF73A9
:104CC0001A4082827047C1F3080282807047014611
:104CD0008888C0F308007047028A4FF6F0731A40C4
:104CE0000282028A0A430282704721B1828942F01D
:104CF0000202828104E082894FF6FD731A408281AC
:104D0000704782894FF2FF731A40828182890A4379
:104D100082817047028A4FF6DF731A400282028A4C
:104D20000A430282704721B1028A42F48042028221
:104D300004E0028A4BF6FF731A40028270478189B1
:104D400041F001018181704721B1828A42F008025D
:104D5000828204E0828A4FF6F7731A40828270479B
:104D6000028BD2B20283028B42EA01220283704795
:104D700021B1828A42F02002828204E0828A4FF6C8
:104D8000DF731A408282704721B1828A42F010029A
:104D9000828204E0828A4FF6EF731A408282704763
:104DA000828A4FF6FB731A408282828A0A43828289
:104DB000704721B1828A42F00202828204E0828A34
:104DC0004FF6FD731A40828270471AB1838A0B43F3
:104DD000838202E0838A8B4383827047F0B5034667
:104DE000002400260025002040F66A17B94200D1B1
:104DF00000BF1846C1F3421401F01F06012707FA4D
:104E000006F5012C01D10C3004E0022C01D1103048
:104E100000E014301AB107682F43076002E007680A
:104E2000AF430760F0BD02460020B1F5007F00D11E
:104E300000BF13880B400BB1012000E00020704739
:104E400001F40072B2F5007F00D100BFCA430280B6
:104E5000704770B50246002400230025002040F66C
:104E60006A16B14200D100BFC1F3421501F01F0321
:104E7000012606FA03F3012D02D19689334006E09C
:104E8000022D02D1168A334001E0968A33400C127B
:104E9000012606FA04F41688344013B10CB101203F
:104EA00000E0002070BD0000001001400044004000
:104EB00000480040004C00400050004000140140F9
:104EC00010B50022002340F66A14A14200D100BFB1
:104ED0000A1201249440A3B2DC43048010BD0000F8
:104EE0000CB50020019000907648006840F48030B6
:104EF0007449086000BF7348006800F400300090F7
:104F00000198401C0190009818B90198B0F5A06F65
:104F1000F1D16C48006800F4003010B1012000901D
:104F200001E0002000900098012846D165484030FB
:104F3000006840F080506349403108606248006872
:104F400040F44040604908605E48083000685D49B0
:104F5000083108600846006840F4004008600846D0
:104F6000006840F4A05008605848091F0860081FF6
:104F7000006840F08070091F086000BF5148006859
:104F800000F000700028F9D040F205605049086038
:104F90004C480830006820F003004A490831086096
:104FA0000846006840F00200086000BF454808302D
:104FB000006800F00C000828F8D10CBD10B5454879
:104FC000006840F47000434908603E48006840F0C3
:104FD00001003C49086000203A490831086039481E
:104FE00000683D490840374908603C48091D086091
:104FF000081F006820F48020091F08600020314944
:105000000C310860FFF76CFF4FF0006031498039C8
:10501000086010BD70B50020002202230024022188
:10502000284D08352D6805F00C0020B1042806D065
:10503000082834D107E02A4D2A4E356033E02A4D46
:10504000284E35602FE01F4D2D1D2D68C5F380546F
:105050001C4D2D1D2D6805F03F0154B1224DB5FBAF
:10506000F1F5184E361D3668C6F3881605FB06F2B4
:1050700009E01B4DB5FBF1F5124E361D3668C6F33F
:10508000881605FB06F20F4D2D1D2D68C5F3014551
:105090006D1C6B00B2FBF3F5124E356003E0104D52
:1050A000104E356000BF00BF064D08352D68C5F3B2
:1050B00003150E4E705D0B4D2D68C540094E3560D1
:1050C00070BD0000003802400070004008544007E6
:1050D000003C024088ED00E0FFFFF6FE10300024A7
:1050E0000024F4005802002000127A005C02002024
:1050F000704770471CB501210420FEF753FD0420C2
:10510000009001208DF8040000208DF80600032097
:105110008DF8050000208DF807006946FE48FEF76F
:10512000DFFA1CBDFD480068FD490860FB48001D12
:1051300000684860F9480830006888607047704728
:10514000704770477047704710B50A46114602E035
:10515000A1F5007399B2B1F5007FF9DC03888B42A9
:1051600005DAC1F5007304882344038002E0038854
:105170005B1A038010BD1CB500220021E94BDB6ADD
:105180009BB2019313B9002343801CBDBDF80430CA
:10519000C3F500739BB200930388BDF80040A3429F
:1051A0000DDA02880388BDF80040E31A99B203883B
:1051B0000B4403800388C3F3080303800BE00388D8
:1051C000BDF80040A34206DD02880388C3F50073E2
:1051D00099B200230380002904DDD34B13444360BC
:1051E000418001E00023438000BFCEE72DE9FF4F5F
:1051F00081B004468A469346DDF8388000270020B7
:1052000000908146002500BF2046FFF7B4FF60886C
:10521000384487B2002666E0B9F1000F06D0B9F134
:10522000010F1CD0B9F1020F5AD139E05D4510DAF7
:105230006068805D1AF80510884202D1681C85B24A
:1052400006E000256088801B401E381A80B200905E
:1052500046E0002509F101001FFA80F900BF10980F
:10526000854217DA6068815D0F984155681C85B2E8
:10527000109885420DDBB8F1000F0AD16088801BC1
:10528000401E81B22046FFF75FFF012005B0BDE858
:10529000F08F25E0002509F101001FFA80F900BF19
:1052A000454511DA6068815D0498405D814202D114
:1052B000681C85B208E04FF0000900256088801B5B
:1052C000401E381A80B20090454508DB6088801B7C
:1052D000401E81B22046FFF737FF0120D6E700BF0E
:1052E00000BF701C86B26088B04295DC60880028E0
:1052F0008ADC0098381A81B22046FFF725FF00208B
:10530000C4E730B585B004460D4688A00068049017
:1053100087A000680390012003AB042204A98DE854
:1053200031008448FFF762FF05B030BD70471CB5FF
:1053300001210420FEF736FC0420009001208DF8A6
:10534000040000208DF8060003208DF805000020E1
:105350008DF8070069467048FEF7C2F91CBD10B50C
:105360000A46114602E0A1F5007399B2B1F5007F3B
:10537000F9DC03888B4205DAC1F500730488234405
:10538000038002E003885B1A038010BD1CB5002275
:105390000021644B8C331B689BB2019313B900232B
:1053A00043801CBDBDF80430C3F500739BB200936D
:1053B0000388BDF80040A3420DDA02880388BDF8D7
:1053C0000040E31A99B203880B4403800388C3F3B7
:1053D000080303800BE00388BDF80040A34206DD0C
:1053E00002880388C3F5007399B200230380002963
:1053F00004DD514B13444360418001E000234380AE
:1054000000BFCEE72DE9FF4F81B004468A469346A0
:10541000DDF838800027002000908146002500BF7D
:105420002046FFF7B3FF6088384487B2002666E065
:10543000B9F1000F06D0B9F1010F1CD0B9F1020F7C
:105440005AD139E05D4510DA6068805D1AF80510C0
:10545000884202D1681C85B206E000256088801B66
:10546000401E381A80B2009046E0002509F1010084
:105470001FFA80F900BF1098854217DA6068815DD5
:105480000F984155681C85B2109885420DDBB8F124
:10549000000F0AD16088801B401E81B22046FFF7B2
:1054A0005EFF012005B0BDE8F08F25E0002509F181
:1054B00001001FFA80F900BF454511DA6068815D7F
:1054C0000498405D814202D1681C85B208E04FF02B
:1054D000000900256088801B401E381A80B20090A9
:1054E000454508DB6088801B401E81B22046FFF7DF
:1054F00036FF0120D6E700BF00BF701C86B260886F
:10550000B04295DC608800288ADC0098381A81B2A5
:105510002046FFF724FF11E000080240107AFF1F29
:105520002805002000600240700D0020A55A11A43B
:10553000AA00000070020020AC1100200020B1E79A
:1055400030B585B004460D46FDA0006804900020EB
:10555000039003AB022204A98DE83100F948FFF75C
:1055600051FF05B030BD704700B58BB0012104205C
:10557000FEF74BFB01210220FEF714FB4FF4707085
:10558000099002208DF8280003208DF829000020C2
:105590008DF82A0001208DF82B0009A9EA48FEF7B2
:1055A0009FF802220621E848FEF725F9022207218A
:1055B000E548FEF720F902220821E348FEF71BF92F
:1055C00002220921E048FEF716F94EF65F20079007
:1055D0000D20ADF818000020ADF82000ADF81A003D
:1055E0008DF8220006A9D948FEF7C7FC01A8FEF7EE
:1055F0007DFE6020ADF804000120ADF8060000201B
:10560000ADF8100001A9D148FEF74CFD0821CF48A4
:10561000FEF7D5FE01A9CD48FEF77DFD0821CB4858
:10562000FEF7D6FE01A9C948FEF7C2FD0821C7480A
:10563000FEF7DBFE01A9C548FEF720FE0821C3489E
:10564000FEF7DCFE0121C148FEF702FD0121BF4843
:10565000FEF71CFD0BB000BD10B50021BB48FEF7E6
:1056600015FD10BD10B50021B848FEF70FFD10BDA7
:105670007047704710B50A46114602E0A1F5007365
:1056800099B2B1F5007FF9DC03888B4205DAC1F5E8
:10569000007304882344038002E003885B1A0380BC
:1056A00010BD1CB500220021A94B1B689BB20193C1
:1056B00013B9002343801CBDBDF80430C3F500734B
:1056C0009BB200930388BDF80040A3420DDA028824
:1056D0000388BDF80040E31A99B203880B440380A5
:1056E0000388C3F3080303800BE00388BDF8004080
:1056F000A34206DD02880388C3F5007399B2002334
:105700000380002904DD934B13444360418001E092
:105710000023438000BFCEE72DE9F04704460E4644
:10572000174699463D464FF0000800BF2046FFF758
:10573000B8FF6088A8420DDC628806EB080061684B
:1057400001F05CF8608840441FFA80F86088281AED
:1057500085B20CE06088401B81B22046FFF78AFFCB
:1057600006EB08002A46616801F048F80025002D84
:1057700002DD60880028D9DC781BA9F80000BDE8AC
:10578000F0872DE9F84F0546894616461F46002446
:10579000A046A3460A98401E1FFA80FABAF5007F79
:1057A00001DB40F2FF1A012E02DA0020BDE8F88F7B
:1057B00000BF2846FFF775FF688840441FFA80F84D
:1057C000002000900FE0BDF800106868415C701E7A
:1057D00019F80000814201D14FF0010BBDF8000023
:1057E000401C80B20090BBF1000F04D16888BDF866
:1057F00000108842E7DCBDF80000204484B2BBF111
:10580000000F25D04FF0000B544501DCB44208DAFC
:10581000A8EB040081B22846FFF72CFF0024A04625
:1058200016E041462846FFF725FF6B4622463946DB
:105830002846FFF771FF00203855A11BC8193246D2
:10584000494600F090FF08B92046AFE70024A04683
:1058500068880028ADDCB8F1000F03DD414628461A
:10586000FFF708FF0020A1E77FB504460D4600269C
:1058700039A0006803902346022203A93748009507
:10588000FFF77FFF002811DD35483649364A374B90
:10589000CDE900210290364A36A1204600F080FE74
:1058A000052801D1012000E000200646304604B062
:1058B00070BD70477FB504460D46002626A00068DF
:1058C00003902346022203A931480095FFF759FFB0
:1058D000002811DD2F483049304A314BCDE90021F5
:1058E0000290304A30A1204600F05AFE052801D12E
:1058F000012000E000200646304604B070BD70472D
:105900007FB504460D46002613A000680390234689
:10591000022203A92B480095FFF733FF00286EDD14
:1059200029482A492A4A2B4BCDE9002102902A4ACC
:105930002AA1204600F034FE05285ED101205DE05A
:10594000000F00007C02002000040240000800401C
:1059500044640240340700200D0A00008402002045
:105960009C02002098020020940200209002002057
:105970008C0200207069645F726F6C6C3D25662C30
:1059800025662C25662C25662C25660D0A00000050
:10599000A0020020B8020020B4020020B0020020C3
:1059A000AC020020A80200207069645F7961773D35
:1059B00025662C25662C25662C25662C25660D0A69
:1059C00000000000BC020020D4020020D002002011
:1059D000CC020020C8020020C40200207069645F6D
:1059E000616C743D25662C25662C25662C25662C5D
:1059F00025660D0A0000000001E000200646304642
:105A000004B070BD70477CB504460D460026AFF269
:105A1000B800006801902346022201A9F7480095CA
:105A2000FFF7AFFE002809DDF54AF6A1204600F099
:105A3000B7FD012800D100E00020064630467CBDBD
:105A400070477CB504460D460026AFF2F4000068AE
:105A500001902346022201A9ED480095FFF791FE2F
:105A6000002808DDEBA1204600F034FF08B9012032
:105A700000E00020064630467CBD70477CB50446F9
:105A80000D460026AFF23010006801902346022236
:105A900001A9E2480095FFF774FE002808DDE0A1A7
:105AA000204600F017FF08B9012000E0002006465C
:105AB00030467CBD70472DE9FF4F81B004468A46D1
:105AC0009346DDF8388000270020009081460025AD
:105AD00000BF2046FFF7E5FD6088384487B2002606
