:020000040800F2
:10000000006E002085020008FD300008FF30000867
:1000100011310008153100082731000800000000E8
:100020000000000000000000000000002B3100086C
:100030002D3100080000000055A20008952A000894
:100040009F0200089F0200089F0200089F0200080C
:100050009F0200089F0200089F0200089F020008FC
:100060009F0200089F0200089F0200089F020008EC
:100070009F0200089F0200089F0200089F020008DC
:100080009F0200089F0200089F0200089F020008CC
:100090009F0200089F0200089F0200089F020008BC
:1000A0009F0200089F0200089F0200089F020008AC
:1000B0009F0200089F0200089F0200089F0200089C
:1000C0009F0200089F0200089F0200089F0200088C
:1000D0009F0200089F0200089F0200089F0200087C
:1000E0009F0200089F0200089F0200089F0200086C
:1000F0009F0200089F0200089F0200089F0200085C
:100100009F0200089F0200089F0200089F0200084B
:100110009F0200089F0200089F0200089F0200083B
:100120009F0200089F0200089F0200089F0200082B
:100130009F0200089F0200089F0200089F0200081B
:100140009F0200089F0200089F0200089F0200080B
:100150009F0200089F0200089F0200089F020008FB
:100160009F0200089F0200089F0200089F020008EB
:100170009F0200089F0200089F0200089F020008DB
:100180009F0200089F02000800F002F800F06AF8E1
:100190000AA090E8000C82448344AAF10107DA45E2
:1001A00001D100F05FF8AFF2090EBAE80F0013F0CA
:1001B000010F18BFFB1A43F00103184770DF00005E
:1001C00090DF00000A444FF0000C10F8013B13F0E0
:1001D000070408BF10F8014B1D1108BF10F8015BA0
:1001E000641E05D010F8016B641E01F8016BF9D193
:1001F00013F0080F1EBF10F8014BAD1C0C1B09D1EA
:100200006D1E58BF01F801CBFAD505E014F8016B5B
:1002100001F8016B6D1EF9D59142D6D370470000ED
:100220000023002400250026103A28BF78C1FBD8FF
:10023000520728BF30C148BF0B6070471FB50DF093
:100240000EFD0AF007FE0400002000210CF090FDD6
:10025000401C6060002000210CF074FDE0601FBDB8
:1002600010B510BD0BF042F81146FFF7E7FF02F0A2
:10027000C9FB0BF08FFA03B4FFF7F2FF03BC0BF0DE
:10028000A3FA00000948804709480047FEE7FEE757
:10029000FEE7FEE7FEE7FEE7FEE7FEE7FEE7FEE736
:1002A00004480549054A064B7047000059480008B4
:1002B00089010008002E0020006E0020004E002062
:1002C000004E0020FE480068C088401C81B2FC48F7
:1002D0000068C180FA480068C088042803DD002156
:1002E000F7480068C180F64800680089401C81B268
:1002F000F34800680181F24800680089092803DD9D
:100300000021EF4800680181ED4800684089401CE9
:1003100081B2EB4800684181E948006840894F2874
:1003200003DD0021E64800684181E54800688089D6
:10033000401C81B2E24800688181E1480068808900
:10034000B0F57A7F03DB0021DD48006881817047CA
:1003500091ED000B80ED100B91ED0C0B80ED120B6D
:10036000022280F85B2091ED020B80ED000B91EDF5
:10037000020B80ED020B91ED160B80ED040B91ED5D
:10038000160B80ED060B002200F8582F91ED040BA0
:1003900000ED0E0B91ED220B00ED0C0B42709FED6A
:1003A000C90B00ED020B91ED060B00ED0A0B91ED70
:1003B0002E0B00ED080B02228270583870471FB5D3
:1003C0002DED060B2DED028BCCB09FEDBE0B53EC4B
:1003D000102B9DED4E0B51EC100B0DF0D7F981F069
:1003E00083869DED500ADFEDB90AB4EEE00AF1EE26
:1003F00010FA41F30E865E9890ED450A5498D0EDC0
:10040000000A60EE200ACDED290A5E9890ED450ABB
:100410005498D0ED010A60EE200ACDED2B0A5E98CB
:10042000D0ED430A9DED510A20EE800A90ED421A6C
:10043000DDED2B0A00EEC10A8DED2C0A5E98D0EDA1
:10044000440A9DED520A20EE800A90ED421ADDED3D
:10045000290A00EEC10A8DED2A0A5E9890ED460A3F
:100460005698D0ED010A20EE200A8DED170A179854
:100470000DF084FBCDE91A015598D0ED000A9DEDF1
:100480002C0A20EE800A8DED170A17980DF076FBE6
:10049000CDE918019DED1A0B53EC102B9DED180BB7
:1004A00051EC100B0DF080FACDE926015E9890ED2D
:1004B000460A5698D0ED000A20EE200A8DED170A64
:1004C00017980DF05BFBCDE91A015598D0ED000AA5
:1004D0009DED2A0A20EE800A8DED170A17980DF07F
:1004E0004DFBCDE918019DED1A0B53EC102B9DED42
:1004F000180B51EC100B0DF057FACDE924015E9862
:10050000D0F8240119900DF039FBCDE91A019DEDC9
:10051000260B53EC102B9DED1A0B51EC100B0CF02D
:1005200053FF08D85E98D0F824011B900DF026FBED
:10053000CDE926011AE05E98D0F8280119900DF057
:100540001DFBCDE91A019DED260B53EC102B9DED03
:100550001A0B51EC100B0DF019F907D85E98D0F872
:1005600028011B900DF00AFBCDE926015E98D0F81A
:10057000240119900DF002FBCDE91A019DED240B29
:1005800053EC102B9DED1A0B51EC100B0CF01CFFD3
:1005900008D85E98D0F824011B900DF0EFFACDE951
:1005A00024011AE05E98D0F8280119900DF0E6FABF
:1005B000CDE91A019DED240B53EC102B9DED1A0B88
:1005C00051EC100B0DF0E2F807D85E98D0F8280136
:1005D0001B900DF0D3FACDE924015E9890ED120B3B
:1005E0008DED1A0B9DED1A0B53EC102B9DED260B88
:1005F00051EC100B0CF024FFCDE920015E9890ED3A
:10060000120B8DED1A0B9DED1A0B53EC102B9DED7B
:10061000240B51EC100B0CF013FFCDE91E019DEDE6
:10062000200B53EC102B9FED2A0B51EC100B0CF010
:1006300007FFCDE91801284800680DF09FFA9FEDEB
:10064000270B53EC102BCDE914019DED140B51EC4D
:10065000100B0CF0F5FECDE916019DED180B53ECD7
:10066000102B9DED160B51EC100B0CF0D5FBCDE9CA
:100670001A019DED1A0B51EC100B0CF09BFB164967
:1006800008609DED1E0B53EC102B9FED110B51ECF0
:10069000100B0CF0D5FECDE91801124800680DF0E2
:1006A0006DFA9FED0E0B53EC102BCDE914019DED6F
:1006B000140B51EC100B0CF0C3FECDE9160113E046
:1006C00070DD00080000000000000000CDCC4C3EB2
:1006D0009A9999999999C93F000000209A999999F6
:1006E0009999E93F040000209DED180B53EC102B65
:1006F0009DED160B51EC100B0CF08EFBCDE91A01A1
:100700009DED1A0B51EC100B0CF054FBFE490860E8
:10071000FE4800680DF032FACDE92001FA48006881
:100720000DF02CFACDE91E019FEDF90B8DED440B78
:1007300050980DF023FA9FEDF80B53EC102BCDE9F8
:100740001A019DED1A0B51EC100B0DF01FF845D25C
:100750002C980DF013FACDE914019DED140B0BF05C
:100760005BFC8DED160B9DED160B51EC100B0CF098
:1007700021FB19900DF002FA9FEDE90B53EC102BC1
:10078000CDE91A019DED1A0B51EC100B0CF01CFE7B
:1007900024D22A980DF0F2F9CDE914019DED140B45
:1007A0000BF03AFC8DED160B9DED160B51EC100B7A
:1007B0000CF000FB19900DF0E1F99FEDD90B53EC13
:1007C000102BCDE91A019DED1A0B51EC100B0CF01A
:1007D000FBFD03D21FED450B8DED440B9DED440B4E
:1007E00051EC100B0CF0E6FA49909DED490AB5EE7C
:1007F000C00AF1EE10FA03D15D9890F8580058B194
:100800005E9890ED160B5D9880ED040B5E9890ED70
:10081000160B5D9880ED060B5E9890ED180B8DED34
:100820001A0B5D9890ED040B8DED180B9DED1A0BD6
:1008300053EC102B9DED180B51EC100B0CF0A6FF98
:1008400006D85E9890ED180B5D9880ED040B1AE0C9
:100850005E9890ED1A0B8DED1A0B5D9890ED040BE0
:100860008DED180B9DED1A0B53EC102B9DED180B15
:1008700051EC100B0CF0A8FD05D85E9890ED1A0B0A
:100880005D9880ED040B5E9890ED180B8DED1A0BC2
:100890005D9890ED060B8DED180B9DED1A0B53EC4A
:1008A000102B9DED180B51EC100B0CF06FFF06D8C0
:1008B0005E9890ED180B5D9880ED060B1AE05E983F
:1008C00090ED1A0B8DED1A0B5D9890ED060B8DEDEA
:1008D000180B9DED1A0B53EC102B9DED180B51ECE2
:1008E000100B0CF071FD05D85E9890ED1A0B5D9819
:1008F00080ED060B9FED860B8DED440B50980DF0AF
:100900003DF99FED850B53EC102BCDE91A019DEDC0
:100910001A0B51EC100B0CF039FF04D21FED970BA2
:100920008DED440B03E01FED990B8DED440B9DED18
:10093000440B51EC100B0CF03DFA48905E9890ED92
:10094000460A5698D0ED020A20EE200A8DED170ACD
:1009500017980DF013F9CDE91A015E9890ED450A4C
:100960005498D0ED020A60EE200A5E9890ED4C1A81
:10097000D0ED4B1A9DED530A21EE800A00EEC10A1C
:100980005798D0ED000A20EE200A8DED170A17982F
:100990000DF0F4F8CDE918019DED1A0B53EC102B76
:1009A0009DED180B51EC100B0CF0FEFF43914290A3
:1009B0005E9890ED1E0B8DED1A0B9DED1A0B53EC0E
:1009C000102B9DED420B51EC100B0CF039FD4191B9
:1009D00040909DED480AB5EEC00AF1EE10FA03D141
:1009E0005D9890F8590028B15E9890ED220B5D98C3
:1009F00080ED0A0B5E9890ED240B8DED1A0B5D983F
:100A000090ED0A0B8DED180B9DED1A0B53EC102B8E
:100A10009DED180B51EC100B0CF0B8FE06D85E984B
:100A200090ED240B5D9880ED0A0B1AE05E9890ED36
:100A3000260B8DED1A0B5D9890ED0A0B8DED180BC2
:100A40009DED1A0B53EC102B9DED180B51EC100B78
:100A50000CF0BAFC05D85E9890ED260B5D9880ED01
:100A60000A0B50980DF08AF89FED2F0B53EC102BCA
:100A7000CDE91A019DED1A0B51EC100B0CF086FE1E
:100A80002CD250980DF07AF89FED290B53EC102BD7
:100A9000CDE91A019DED1A0B51EC100B0CF094FCF2
:100AA0001CD25D9890ED140B8DED1A0B1FEDFB0B16
:100AB00053EC102B9DED1A0B51EC100B0CF0C0FBFE
:100AC0000CD15A9800681B900DF058F8459144904D
:100AD0009FED0F0B5D9880ED140B75E050980DF0B5
:100AE0004DF89FED110B53EC102BCDE91A019DED44
:100AF0001A0B51EC100B0CF067FC32D85D9890ED9E
:100B0000140B8DED1A0B17E00400002000000020EC
:100B1000000000000000F03F1F85EB51B81ED53FDC
:100B2000CDCCCCCCCCCCDC3F52B81E85EB51D83FE1
:100B300085EB51B81E85DB3F1FED0B0B53EC102BE3
:100B40009DED1A0B51EC100B0CF07AFB09D19FEDC7
:100B5000FD0B5D9880ED140B9FEDFA0B8DED440BB2
:100B600032E050980DF00AF81FED0F0B53EC102BEC
:100B7000CDE91A019DED1A0B51EC100B0CF006FE9D
:100B800019D85D9890ED140B8DED1A0B1FED200B0D
:100B900053EC102B9DED1A0B51EC100B0CF050FB8D
:100BA00009D19FEDE80B5D9880ED140B9FEDE50BEF
:100BB0008DED440B08E09FEDE30B5D9880ED140B89
:100BC0009FEDE00B8DED440B5D9890ED140B8DEDDA
:100BD0004A0B9DED4A0B51EC100B0CF0EBF84790D3
:100BE0009DED470AB5EEC00AF1EE10FA76DD5A988F
:100BF000406817900CF0C2FFCDE91A019DED440B3F
:100C000051EC100B0CF0D6F800EE100A5A98D0ED0B
:100C1000000A30EE600A5B98D0ED000A20EE200A50
:100C20008DED170A17980CF0A9FFCDE918019DED7D
:100C30001A0B53EC102B9DED180B51EC100B0CF014
:100C4000B3FE459144905E9890ED080B8DED1A0B24
:100C50009DED1A0B53EC102B9DED440B51EC100B3A
:100C60000CF0EEFBCDE936019DED470AB5EEC00A6A
:100C7000F1EE10FA04DD5D9890F95B0000280BDDC1
:100C80009DED470AB5EEC00AF1EE10FA0AD85D985C
:100C900090F85B00012805D15E9890ED0C0B5D98F3
:100CA00080ED120B5E9890ED0E0B8DED1A0B5D989A
:100CB00090ED120B8DED180B9DED1A0B53EC102BD4
:100CC0009DED180B51EC100B0CF060FD07D85E98F1
:100CD00090ED0E0B5D9880ED120B1BE079E15E98B4
:100CE00090ED100B8DED1A0B5D9890ED120B8DEDC4
:100CF000180B9DED1A0B53EC102B9DED180B51ECBE
:100D0000100B0CF061FB05D85E9890ED100B5D9810
:100D100080ED120B29980CF031FFCDE910019DED0B
:100D2000100B0BF00DF98DED120B9DED120B51EC2C
:100D3000100B0CF03FF808EE100A2B980CF01EFF79
:100D4000CDE910019DED100B0BF0FAF88DED120BB3
:100D50009DED120B51EC100B0CF02CF800EE100A6C
:100D600028EE000A8DED150A15980CF007FFCDE965
:100D700018015E98D0F8040111900CF0FFFECDE947
:100D800014015E98D0F800010D900CF0F7FECDE94B
:100D900010015B98806807900CF0F0FECDE9080127
:100DA0005D9890ED120B8DED060B9DED060B53EC4F
:100DB000102B9DED080B51EC100B0CF041FBCDE915
:100DC0000C015B98406803900CF0D8FECDE904015B
:100DD0009DED440B53EC102B9DED040B51EC100BCF
:100DE0000CF02EFBCDE908015B98C06801900CF077
:100DF000C5FECDE904015D9890ED100B8DED000B63
:100E00009DED000B53EC102B9DED360B51EC100BB0
:100E10000CF0CAFDCDE902019DED040B53EC102B43
:100E20009DED020B51EC100B0CF00AFBCDE9060115
:100E30009DED080B53EC102B9DED060B51EC100BA8
:100E40000BF0EAFFCDE90A019DED0C0B53EC102BE2
:100E50009DED0A0B51EC100B0BF0DEFFCDE90E01FE
:100E60009DED100B53EC102B9DED0E0B51EC100B68
:100E70000BF0D2FFCDE912019DED140B53EC102BBA
:100E80009DED120B51EC100B0CF0DAFACDE91601C6
:100E90009DED180B53EC102B9DED160B51EC100B28
:100EA0000CF076F8CDE91A019DED1A0B51EC100B00
:100EB0000BF080FF5C9908629DED360B5D9880ED2C
:100EC000100B5E9890ED0A0B8DED180B9DED440B09
:100ED00053EC102B9DED180B51EC100B0CF0B0FAED
:100EE000CDE91A015D9890ED120B8DED180B9DED7B
:100EF000180B53EC102B9DED1A0B51EC100B0BF053
:100F00008BFF0A4601465D98C0E912125E9890ED8B
:100F10000E0B8DED1A0B5D9890ED120B8DED180BED
:100F20009DED1A0B53EC102B9DED180B51EC100B93
:100F30000CF02CFC0AD85E9890ED0E0B5D9880EDBD
:100F4000120B1EE000000000000000005E9890ED13
:100F5000100B8DED1A0B5D9890ED120B8DED180BAB
:100F60009DED1A0B53EC102B9DED180B51EC100B53
:100F70000CF02AFA05D85E9890ED100B5D9880ED84
:100F8000120B9DED470AB5EEC00AF1EE10FA04DD32
:100F900001215D9880F85B101BE09DED470AB5EEDE
:100FA000C00AF1EE10FA04D2FF215D9880F85B10C0
:100FB0000FE09DED470AB5EEC00AF1EE10FA04D13C
:100FC00000215D9880F85B1003E002215D9880F8B5
:100FD0005B105A98406817900CF0D0FDCDE91A01CB
:100FE0005E98D0F83C0117900CF0C8FDCDE91801CF
:100FF0009DED1A0B53EC102B9DED180B51EC100BC3
:101000000CF0D2FC459144905E9890ED2A0B8DED4A
:101010001A0B9DED1A0B53EC102B9DED440B51EC6C
:10102000100B0CF00DFACDE936011FED3A0B53EC25
:10103000102B9DED4A0B51EC100B0CF0A7FB04D2CA
:101040005D9890F95A0000280FDD1FED420B53EC1C
:10105000102B9DED4A0B51EC100B0CF0B5F90AD892
:101060005D9890F85A00012805D15E9890ED2E0BFE
:101070005D9880ED0E0B5E9890ED300B8DED1A0BA8
:101080005D9890ED0E0B8DED180B9DED1A0B53EC4A
:10109000102B9DED180B51EC100B0CF077FB06D8C4
:1010A0005E9890ED300B5D9880ED0E0B1AE05E9827
:1010B00090ED320B8DED1A0B5D9890ED0E0B8DEDD2
:1010C000180B9DED1A0B53EC102B9DED180B51ECEA
:1010D000100B0CF079F905D85E9890ED320B5D9805
:1010E00080ED0E0B5E98D0ED500A9DED470AF4EEB0
:1010F000C00AF1EE10FA05D25C9890ED080A8DED69
:101100002B0AB3E05B98806811900CF037FD9FEDDF
:10111000FE0B53EC102BCDE912019DED120B51EC9F
:10112000100B0CF08DF9CDE914015D9890ED0E0BCC
:101130008DED120B9DED120B53EC102B9DED140B4E
:1011400051EC100B0CF07CF9CDE918015B9840686C
:101150000D900CF013FD9FEDEE0B53EC102BCDE931
:101160000E019DED0E0B51EC100B0CF069F9CDE961
:1011700010019DED440B53EC102B9DED100B51EC29
:10118000100B0CF05DF9CDE914015B98C0680D906F
:101190000CF0F4FCCDE910015D9890ED0C0B8DED99
:1011A0000C0B9DED0C0B53EC102B9DED360B51EC05
:1011B000100B0CF0F9FBCDE90E019DED100B53EC7B
:1011C000102B9DED0E0B51EC100B0CF039F9CDE905
:1011D00012019DED140B53EC102B9DED120B51ECF5
:1011E000100B0BF019FECDE916019DED180B53EC19
:1011F000102B9DED160B51EC100B0BF00DFECDE9F5
:101200001A019DED1A0B51EC100B0BF0D3FD299038
:101210005E98D0ED3E0A9DED290AF4EEC00AF1EE8B
:1012200010FA05D25E9890ED3E0A8DED290A0EE087
:101230005E98D0ED3F0A9DED290AF4EEC00AF1EE6A
:1012400010FA04DD5E9890ED3F0A8DED290A5E9854
:10125000D0ED3C0A9DED500A70EE600A90ED3D1A0B
:101260009DED290A00EE810A8DED2B0A5E98D0EDE6
:10127000510A9DED2B0AF4EEC00AF1EE10FA05D2E8
:101280005E9890ED510A8DED2B0A0EE05E98D0ED40
:10129000520A9DED2B0AF4EEC00AF1EE10FA04DDBD
:1012A0005E9890ED520A8DED2B0A5598806811904A
:1012B0000CF064FCCDE912015D9890ED040B8DED0E
:1012C000100B9DED100B53EC102B9DED120B51EC00
:1012D000100B0CF0B5F8CDE91601559840680D904B
:1012E0000CF04CFCCDE90E019DED260B53EC102BC0
:1012F0009DED0E0B51EC100B0CF0A2F8CDE9120194
:101300005598C0680B900CF039FCCDE90E015D9842
:1013100090ED000B8DED0A0B9DED0A0B53EC102B9D
:101320009DED200B51EC100B0CF03EFBCDE90C01B8
:101330009DED0E0B53EC102B9DED0C0B51EC100B97
:101340000CF07EF8CDE910019DED120B53EC102B43
:101350009DED100B51EC100B0BF05EFDCDE914016F
:101360009DED160B53EC102B9DED140B51EC100B57
:101370000BF052FDCDE918015E9890ED1C0B8DED40
:10138000160B9DED160B53EC102B9DED180B51EC2D
:10139000100B0CF055F8CDE91A019DED1A0B51EC2C
:1013A000100B0BF007FD29905598806811900CF0F8
:1013B000E5FBCDE912015D9890ED060B8DED100B6C
:1013C0009DED100B53EC102B9DED120B51EC100BFF
:1013D0000CF036F8CDE91601559840680D900CF0E8
:1013E000CDFBCDE90E019DED240B53EC102B9DEDB3
:1013F0000E0B51EC100B0CF023F8CDE912015598AF
:10140000C0680B900CF0BAFBCDE90E015D9890ED31
:10141000020B8DED0A0B9DED0A0B53EC102B9DED8D
:101420001E0B51EC100B0CF0BFFACDE90C019DED39
:101430000E0B53EC102B9DED0C0B51EC100B0BF025
:10144000FFFFCDE910019DED120B53EC102B9DED2C
:10145000100B51EC100B0BF0DFFCCDE914019DEDEE
:10146000160B53EC102B9DED140B51EC100B0BF0E5
:10147000D3FCCDE918015E9890ED1C0B8DED160B99
:101480009DED160B53EC102B9DED180B51EC100B32
:101490000BF0D6FFCDE91A019DED1A0B51EC100BA4
:1014A0000BF088FC2C905E98D0ED470A9DED2C0A3D
:1014B000F4EEC00AF1EE10FA05D25E9890ED470AFC
:1014C0008DED2C0A0EE05E98D0ED480A9DED2C0AB9
:1014D000F4EEC00AF1EE10FA04DD5E9890ED480AD1
:1014E0008DED2C0A5798806811900CF047FBCDE9E0
:1014F00012015D9890ED0A0B8DED100B9DED100B18
:1015000053EC102B08E00000000000000000E03F5A
:10151000000000000000E83F9DED120B51EC100BA5
:101520000BF08EFFCDE91601579840680D900CF036
:1015300025FBCDE90E019DED420B53EC102B9DEDEB
:101540000E0B51EC100B0BF07BFFCDE912015798FD
:10155000C0680B900CF012FBCDE90E015D9890ED88
:10156000080B8DED0A0B9DED0A0B53EC102B9DED36
:10157000400B51EC100B0CF017FACDE90C019DED6E
:101580000E0B53EC102B9DED0C0B51EC100B0BF0D4
:1015900057FFCDE910019DED120B53EC102B9DED83
:1015A000100B51EC100B0BF037FCCDE914019DED45
:1015B000160B53EC102B9DED140B51EC100B0BF094
:1015C0002BFCCDE918015E9890ED280B8DED160BE4
:1015D0009DED160B53EC102B9DED180B51EC100BE1
:1015E0000BF02EFFCDE91A019DED1A0B51EC100BFB
:1015F0000BF0E0FB2A905E98D0ED4D0A9DED2A0A93
:10160000F4EEC00AF1EE10FA08D25E98D0F8340178
:101610001B900CF0B3FACDE93E0117E05E98D0EDD7
:101620004E0A9DED2A0AF4EEC00AF1EE10FA08DD2A
:101630005E98D0F838011B900CF0A0FACDE93E017D
:1016400004E02A980CF09AFACDE93E015E98D0EDBC
:10165000470A9DED290AF4EEC00AF1EE10FA08D20D
:101660005E98D0F81C011B900CF088FACDE922019D
:1016700017E05E98D0ED480A9DED290AF4EEC00A05
:10168000F1EE10FA08DD5E98D0F820011B900CF006
:1016900075FACDE9220104E029980CF06FFACDE942
:1016A000220100202D9089E02B980CF067FACDE9FB
:1016B0000E01FE492D9801EBC00090ED000B8DED61
:1016C0000C0B9DED0C0B53EC102B9DED0E0B51EC08
:1016D000100B0BF0B5FECDE91201F4492D98001D59
:1016E00001EBC00090ED000B8DED0E0B9FEDF00BAC
:1016F00053EC102B9DED0E0B51EC100B0BF0A0FEDC
:10170000CDE910019DED120B53EC102B9DED100B4C
:1017100051EC100B0BF080FBCDE91601E3492D983D
:10172000083001EBC00090ED000B8DED120B9FED2A
:10173000E00B53EC102B9DED120B51EC100B0BF04A
:101740007FFECDE914019DED160B53EC102B9DEDA2
:10175000140B51EC100B0BF05FFBCDE91A019DED62
:101760003E0B8DED160BD1492D980C3001EBC000CE
:1017700090ED000B8DED140B9DED160B53EC102B23
:101780009DED140B51EC100B0BF05AFECDE9180136
:101790009DED1A0B53EC102B9DED180B51EC100B1B
:1017A0000BF03AFBCDE91C012EAB2D9A03EBC202E4
:1017B000DDE91C0103C22D98401C2D902D980428B2
:1017C000FFF672AF5E9890ED340B8DED1A0B9DED28
:1017D0002E0B8DED180B9DED1A0B53EC102B9DED80
:1017E000180B51EC100B0BF0D1FF05D25E9890ED69
:1017F000340B8DED380B1DE05E9890ED360B8DEDC2
:101800001A0B9DED2E0B8DED180B9DED1A0B53EC65
:10181000102B9DED180B51EC100B0BF0D5FD05D2E4
:101820005E9890ED360B8DED380B03E09DED2E0BA1
:101830008DED380B5E9890ED340B8DED1A0B9DED10
:10184000300B8DED180B9DED1A0B53EC102B9DED0D
:10185000180B51EC100B0BF099FF05D25E9890ED30
:10186000340B8DED3A0B1DE05E9890ED360B8DED4F
:101870001A0B9DED300B8DED180B9DED1A0B53ECF3
:10188000102B9DED180B51EC100B0BF09DFD05D2AC
:101890005E9890ED360B8DED3A0B03E09DED300B2D
:1018A0008DED3A0B5E9890ED340B8DED1A0B9DED9E
:1018B000320B8DED180B9DED1A0B53EC102B9DED9B
:1018C000180B51EC100B0BF061FF05D25E9890EDF8
:1018D000340B8DED3C0B1DE05E9890ED360B8DEDDD
:1018E0001A0B9DED320B8DED180B9DED1A0B53EC81
:1018F000102B9DED180B51EC100B0BF065FD05D274
:101900005E9890ED360B8DED3C0B03E09DED320BB8
:101910008DED3C0B5E9890ED340B8DED1A0B9DED2B
:10192000340B8DED180B9DED1A0B53EC102B9DED28
:10193000180B51EC100B0BF029FF05D25E9890EDBF
:10194000340B8DED3E0B1DE05E9890ED360B8DED6A
:101950001A0B9DED340B8DED180B9DED1A0B53EC0E
:10196000102B9DED180B51EC100B0BF02DFD05D23B
:101970005E9890ED360B8DED3E0B03E09DED340B44
:101980008DED3E0B9DED380B8DED1A0B9DED1A0B79
:101990000AF0DEFC8DED380B9DED3A0B8DED1A0B48
:1019A0009DED1A0B0AF0D4FC8DED3A0B9DED3C0B2E
:1019B0008DED1A0B9DED1A0B0AF0CAFC8DED3C0B58
:1019C0009DED3E0B8DED1A0B9DED1A0B0AF0C0FC40
:1019D0008DED3E0B9DED380B8DED1A0B9FED360B0B
:1019E00053EC102B9DED1A0B51EC100B0BF0D0FAB1
:1019F000CDE938019DED3A0B8DED1A0B9FED2E0BC5
:101A000053EC102B9DED1A0B51EC100B0BF0C0FAA0
:101A1000CDE93A019DED3C0B8DED1A0B9FED260BA8
:101A200053EC102B9DED1A0B51EC100B0BF0B0FA90
:101A3000CDE93C019DED3E0B8DED1A0B9FED1E0B8C
:101A400053EC102B9DED1A0B51EC100B0BF0A0FA80
:101A5000CDE93E0100202D90B8E019492D980C30B9
:101A600001EBC00090ED000B8DED100B9FED100B06
:101A700053EC102B9DED100B51EC100B0BF0E0FC18
:101A8000CDE914012C980CF079F8CDE90C010C4942
:101A90002D98083001EBC00090ED000B8DED0A0B86
:101AA0009DED0A0B53EC102B0CE00000F8DD000854
:101AB0000000000000000000CCCCCCCCCC0C8C4052
:101AC00078DD00089DED0C0B51EC100B0BF0B8FC11
:101AD000CDE91001F9492D9801EBC00090ED000B04
:101AE0008DED080B1FED0E0B53EC102B9DED080B2D
:101AF00051EC100B0BF0A4FCCDE90C01EF492D9833
:101B0000001D01EBC00090ED000B8DED080B9DED6D
:101B1000220B53EC102B9DED080B51EC100B0BF02E
:101B20008FFCCDE90A019DED0C0B53EC102B9DEDC4
:101B30000A0B51EC100B0BF06FF9CDE90E019DED86
:101B4000100B53EC102B9DED0E0B51EC100B0BF00A
:101B500063F9CDE912019DED140B53EC102B9DEDB3
:101B6000120B51EC100B0BF057F99FEDD50B53EC0A
:101B7000102BCDE916019DED160B51EC100B0BF05F
:101B800007FACDE9180138A92D9801EBC00090EDB6
:101B9000000B8DED160B9DED160B53EC102B9DEDF0
:101BA000180B51EC100B0BF037F9CDE91A019DED34
:101BB0001A0B51EC100B0BF0FDF801465C9810303D
:101BC0002D9A40F822102D98401C2D902D98042815
:101BD000FFF643AF9DED200B5D9880ED000B9DED72
:101BE0001E0B5D9880ED020B9DED490AB5EEC00A13
:101BF000F1EE10FA7ED15E9890ED140B8DED180B7E
:101C00009DED260B53EC102B9DED180B51EC100B9A
:101C10000BF016FCCDE91A015D9890ED040B8DEDEB
:101C2000180B9DED180B53EC102B9DED1A0B51EC7E
:101C3000100B0BF0F1F80A4601465D98C0E904125A
:101C40005E9890ED140B8DED180B9DED240B53EC6D
:101C5000102B9DED180B51EC100B0BF0F1FBCDE9A7
:101C60001A015D9890ED060B8DED180B9DED180B8C
:101C700053EC102B9DED1A0B51EC100B0BF0CCF824
:101C80000A4601465D98C0E906125E9890ED180B71
:101C90008DED1A0B5D9890ED040B8DED180B9DEDFD
:101CA0001A0B53EC102B9DED180B51EC100B0BF095
:101CB0006DFD06D85E9890ED180B5D9880ED040BD5
:101CC0001CE05E9890ED1A0B8DED1A0B5D9890ED6F
:101CD000040B8DED180B9DED1A0B53EC102B9DEDA5
:101CE000180B51EC100B0BF06FFB07D85E9890EDC2
:101CF0001A0B00E039E05D9880ED040B5E9890EDE2
:101D0000180B8DED1A0B5D9890ED060B8DED180BF1
:101D10009DED1A0B53EC102B9DED180B51EC100B95
:101D20000BF034FD06D85E9890ED180B5D9880EDB1
:101D3000060B1AE05E9890ED1A0B8DED1A0B5D986C
:101D400090ED060B8DED180B9DED1A0B53EC102B3F
:101D50009DED180B51EC100B0BF036FB05D85E987F
:101D600090ED1A0B5D9880ED060B9DED490AB5EEDE
:101D7000C00AF1EE10FA04DD01215D9880F85810D8
:101D80001BE09DED490AB5EEC00AF1EE10FA04D24F
:101D9000FF215D9880F858100FE09DED490AB5EEDF
:101DA000C00AF1EE10FA04D100215D9880F85810B5
:101DB00003E002215D9880F858109DED400B5D987E
:101DC00080ED080B9DED480AB5EEC00AF1EE10FA61
:101DD0005BD15E9890ED200B8DED180B9DED420BC5
:101DE00053EC102B9DED180B51EC100B0BF028FB56
:101DF000CDE91A015D9890ED0A0B8DED180B9DED64
:101E0000180B53EC102B9DED1A0B51EC100B0BF033
:101E100003F80A4601465D98C0E90A125E9890ED03
:101E2000240B8DED1A0B5D9890ED0A0B8DED180BC0
:101E30009DED1A0B53EC102B9DED180B51EC100B74
:101E40000BF0A4FC06D85E9890ED240B5D9880ED15
:101E50000A0B1AE05E9890ED260B8DED1A0B5D983B
:101E600090ED0A0B8DED180B9DED1A0B53EC102B1A
:101E70009DED180B51EC100B0BF0A6FA05D85E98EF
:101E800090ED260B5D9880ED0A0B9DED480AB5EEAE
:101E9000C00AF1EE10FA04DD01215D9880F85910B6
:101EA00022E09DED480AB5EEC00AF1EE10FA0BD221
:101EB000FF215D9880F8591016E0000078DD0008D9
:101EC00000000000000000409DED480AB5EEC00A89
:101ED000F1EE10FA04D100215D9880F8591003E06A
:101EE00002215D9880F859109DED360B5D9880EDCC
:101EF0000C0B5E9890ED2C0B8DED180B9DED440BAB
:101F000053EC102B9DED180B51EC100B0BF098FAC5
:101F1000CDE91A015D9890ED0E0B8DED180B9DED3E
:101F2000180B53EC102B9DED1A0B51EC100B0AF013
:101F300073FF0A4601465D98C0E90E125E9890ED67
:101F4000300B8DED1A0B5D9890ED0E0B8DED180B8F
:101F50009DED1A0B53EC102B9DED180B51EC100B53
:101F60000BF014FC06D85E9890ED300B5D9880ED78
:101F70000E0B1AE05E9890ED320B8DED1A0B5D980A
:101F800090ED0E0B8DED180B9DED1A0B53EC102BF5
:101F90009DED180B51EC100B0BF016FA05D85E985E
:101FA00090ED320B5D9880ED0E0B9FED9B0B53EC8B
:101FB000102B9DED4A0B51EC100B0BF0E7FB04D2FC
:101FC00001215D9880F85A1023E09FED930B53ECAC
:101FD000102B9DED4A0B51EC100B0BF0F5F904D2D0
:101FE000FF215D9880F85A1013E09FED8B0B53ECA6
:101FF000102B9DED4A0B51EC100B0BF021F904D185
:1020000000215D9880F85A1003E002215D9880F865
:102010005A105E98D0ED570A9DED500AF4EEC00AB2
:10202000F1EE10FA14D25C9890ED040A8DED290AB5
:102030005C9890ED050A8DED2B0A5C9890ED060AF0
:102040008DED2C0A5C9890ED070A8DED2A0A23E0AD
:102050005E98D0ED380A9DED500A20EE800A8DED95
:10206000290A5E98D0ED390A9DED500A20EE800ACB
:102070008DED2B0A5E98D0ED3A0A9DED500A20EEC8
:10208000800A8DED2C0A5E98D0ED3B0A9DED500A3A
:1020900020EE800A8DED2A0A5E98D0ED530A9DED60
:1020A000290A30EE800A5C9880ED000A5E98D0ED37
:1020B000540A9DED2B0A30EE800A5C9880ED010AEF
:1020C0005E98D0ED550A9DED2C0A30EE800A5C98A2
:1020D00080ED020A5E98D0ED560A9DED2A0A30EE98
:1020E000800A5C9880ED030A4CB0BDEC028B0AB00C
:1020F00010BD10B52DED068BB0EE409AF0EE609A53
:1021000004469FED470B53EC102B51EC190B0AF0D2
:102110003FFF41EC180B9FED440B53EC102B51EC9F
:10212000180B0AF079FE41EC1A0B9FED410B53ECB2
:10213000102B0BF02BFB1BD29FED3B0B53EC102B0A
:1021400051EC180B0AF068FE41EC1A0B9FED3A0BAC
:1021500053EC102B0BF038F90AD29FED330B53ECF4
:10216000102B51EC180B0AF057FEC4E9000103E0F4
:102170009FED330B84ED000BBDEC068B10BD10B54D
:10218000082005F0FDFD3048006800210160416035
:102190008160C1604FF4F8712C4808F000FB882181
:1021A0002B4808F0FCFA2B4929482830FEF7D0F8D4
:1021B000FF20274908779FED180B084680ED040B98
:1021C000254890ED000A084680ED060A9FED120BA7
:1021D00080ED000B9FED100B80ED020B00F0D2F8AC
:1021E00002F0F3FC02F00DFE02F02BFF02F0D4FF30
:1021F00003F055F802F026FF02F0A8FF03F06DF897
:1022000003F088F803F0A3F803F080F903F030FB43
:1022100003F066FC10BD70470000000000000000E5
:10222000000000000000F63F52B81E85EB51E83F69
:102230009A9999999999E93FCDCCCCCCCCCC0040D6
:10224000000000000000F83F70DD0008D803002007
:10225000C80500203001002008000020B0EE402A10
:10226000D1ED002A72EE622A91ED013A62EE832AE4
:10227000B0EE620AD1ED022AF4EEC02AF1EE10FAB5
:1022800004D2D1ED022AC0ED002A0DE0D1ED032ADF
:10229000F4EEC02AF1EE10FA04DDD1ED032AC0ED10
:1022A000002A01E080ED000AD1ED042A70EEE22A56
:1022B00091ED053A62EE832AB0EE620AD1ED062A6C
:1022C000F4EEC02AF1EE10FA04D2D1ED062AC0EDE8
:1022D000012A0DE0D1ED072AF4EEC02AF1EE10FA42
:1022E00004DDD1ED072AC0ED012A01E080ED010AED
:1022F000D1ED082A71EE622A91ED093A62EE832A45
:10230000B0EE620AD1ED0A2AF4EEC02AF1EE10FA1C
:1023100004D2D1ED0A2AC0ED022A0DE0D1ED0B2A3C
:10232000F4EEC02AF1EE10FA04DDD1ED0B2AC0ED77
:10233000022A01E080ED020AD1ED0C2A71EEE22AB8
:1023400091ED0D3A62EE832AB0EE620AD1ED0E2ACB
:10235000F4EEC02AF1EE10FA04D2D1ED0E2AC0ED4F
:10236000032A0DE0D1ED0F2AF4EEC02AF1EE10FAA7
:1023700004DDD1ED0F2AC0ED032A01E080ED030A50
:102380007047000010B502F01FFC10BD2DE9F047AA
:102390000E21FE4802F003FC00283DD0FC48FB491A
:1023A000097880F88911F949497880F88A11F74944
:1023B000897880F88B11F549C97880F88C11F34938
:1023C000097980F88D11F149497980F88E11EF492A
:1023D000897980F88F11ED49C97980F89011EB491E
:1023E000097A80F89111E949497A80F89211E74910
:1023F000897A80F89311E549C97A80F89411E34904
:10240000097B80F89511E149497B80F896110120FC
:10241000DF4981F8880103E00020DD4981F8880167
:10242000DB4890F8880100287DDDD94890F88901C3
:10243000D74981F89701084690F88A0181F89801F8
:10244000084690F8980191F8971100EB01201FFAC7
:1024500080FACF4890F88B01CD4981F89901084660
:1024600090F88C0181F89A01084690F89A0191F849
:10247000991100EB012084B2C54890F88D01C44940
:1024800081F89B01084690F88E0181F89C0108466E
:1024900090F89C0191F89B1100EB012085B2BC489B
:1024A00090F88F01BA4981F89D01084690F8900193
:1024B00081F89E01084690F89E0191F89D1100EB6D
:1024C000012086B2B24890F89101B14981F89F018C
:1024D000084690F8920181F8A001084690F8A00102
:1024E00091F89F1100EB012087B2A94890F8930161
:1024F000A74981F8A101084690F8940181F8A2014A
:10250000084690F8A20191F8A11100EB01201FFAF2
:1025100080F89F4890F895019D4981F8A3010846ED
:1025200090F8960100E00FE181F8A401084690F8C8
:10253000A40191F8A31100EB01201FFA80F995483E
:10254000408A00EA0A009349B1F8D61088420FDDAC
:102550006FEA0A0080B28F49898808438D49B1F932
:10256000C8100844C0F34F004FF6FF7101EA400A5B
:102570008848D0ED230A0FFA8AF000EE100AB8EE70
:10258000C00A20EE800A824880ED380A8148808A9D
:1025900020408049B1F8D81088420EDDE04380B277
:1025A0007C49C98808437B49B1F9CA100844C0F383
:1025B0004F004FF6FF7101EA40047648D0ED240A3F
:1025C00020B200EE100AB8EEC00A20EE800A704871
:1025D00080ED390A6F48C08B28406E49B1F8E2108F
:1025E00088420EDDE84380B26A4909890843694997
:1025F000B1F9CC100844C0F34F004FF6FF7101EA67
:1026000040056448D0ED250A28B200EE100AB8EE65
:10261000C00A20EE800A5E4880ED3A0A5D48C08A12
:1026200030405C49B1F8DA1088420EDDF04380B2E8
:102630005849498908435749B1F9CE100844C0F3B5
:102640004F004FF6FF7101EA40065248D0ED260ACE
:1026500030B200EE100AB8EEC00A20EE800A4C48F4
:1026600080ED3B0A4B48008B38404A49B1F8DC10FA
:1026700088420EDDF84380B24649898908434549BE
:10268000B1F9D0100844C0F34F004FF6FF7101EAD2
:1026900040074048D0ED270A38B200EE100AB8EEE5
:1026A000C00A20EE800A3A4880ED3C0A3948408B47
:1026B00000EA08003749B1F8DE1088420FDD6FEA02
:1026C000080080B23349C98908433249B1F9D210B0
:1026D0000844C0F34F004FF6FF7101EA40082D484F
:1026E000D0ED280A0FFA88F000EE100AB8EEC00A02
:1026F00020EE800A264880ED3D0A2648808B00EABD
:1027000009002449B1F8E01088420FDD6FEA0900A2
:1027100080B22049098A08431E49B1F9D4100844FF
:10272000C0F34F004FF6FF7101EA40091948D0EDA0
:10273000290A0FFA89F000EE100AB8EEC00A20EE5E
:10274000800A134880ED3E0A124890ED2A0A10488C
:10275000D0ED390A20EE200A80ED340A0D4890EDC4
:102760002B0A0B48D0ED380A20EE200A80ED350AFE
:10277000084890ED2C0A0648D0ED3C0A20EE200ACD
:1027800080ED360A034890ED2D0A05E0A81C0020D4
:10279000D8030020080000200448D0ED3D0A20EEB8
:1027A000200A80ED370ABDE8F0870000D80300203A
:1027B000B1EE080AB94880ED490AB2EE010A80ED8F
:1027C0004A0AB2EE040A80ED4B0A9FEDB50A80ED8D
:1027D0004C0AB7EE000A80ED4D0AB1EE000A80ED1A
:1027E000440AB2EE040A80ED450AB0EE000A80ED1C
:1027F000460A9FEDAB0A80ED470AB7EE000A80ED6E
:10280000480AB1EE000A80ED3F0AB0EE000A80ED02
:10281000400AB7EE000A80ED410AB6EE000A80EDEC
:10282000420AB7EE000A80ED430A704708B5FFF789
:10283000BFFF0DE06A460A219A48006806F0FDFED7
:1028400003F05AFA642300221146104607F034FCC4
:10285000F0E710E004F0EFFC904890F888010128C0
:1028600003D19148006806F097FF05230022114626
:10287000104607F021FCEDE708B51BE06A4605218C
:102880008948006806F0D9FE6A4605218748006835
:1028900006F0D3FE05F086FC04F03BF981480068A1
:1028A00006F07AFF05F0C3FC0A2300221146104609
:1028B00007F002FCE2E710E004F0C6FC774890F86D
:1028C0004801012803D17948006806F065FF052317
:1028D00000221146104607F0EFFBEDE700B585B08A
:1028E000012006F024FE70490860012006F01FFE5A
:1028F0006E490860012006F01AFE6A49086003204C
:10290000002180226A4BCDE90132CDE90310052078
:102910000346684A0090684807F0ABF8032000219E
:102920008022664BCDE90310CDE9013200900346C9
:10293000634A644807F09DF8032000218022624B1F
:10294000CDE90132CDE90310042003465F4A00902F
:102950005F4807F08EF8032000214FF480725D4B32
:10296000CDE90132CDE90310062003465A4A009012
:102970005A4807F07EF805B000BD70B50546002442
:1029800005F0E4FC07F03EFC0446FFF7A7FFFF203C
:1029900007F0C4F8204607F039FC70BD08B500F018
:1029A000C9FB002000F0E4FB012000F02CFC00BF7C
:1029B000212000F0E4FB0028FAD007200223A822FF
:1029C00008210090002000F03BFC002000F084FC77
:1029D0004FF4A05000F08AFC4FF4805000F090FCBF
:1029E000012000F03DFC052004F0DAFD012004F098
:1029F000DAFD022000F060FC00BF00F067FC082850
:102A0000FBD108BD70B505F064FBFFF7C7FFFFF70A
:102A1000B6FB3349481EB0F1807F01D301201BE093
:102A2000481E4FF0E022506150170F22002807DAAD
:102A300013071D0E2B4B00F00F04241F1D5503E040
:102A400013071C0E284B1C5400BF00204FF0E0223F
:102A5000906107201061002008B100BFFEE702234B
:102A6000224A0021224806F0ADFF05F057FC002065
:102A700070BD10B507F0C6FB04461E480078401C28
:102A80001C490870204607F0C1FB05F07EFC05F0EC
:102A900051FB10BD10B5FFF7ECFF10BDD8030020AF
:102AA000CDCC4C3FA0020020980200209C020020C8
:102AB000601000205C120020B72800086008002089
:102AC0005C0A002079280008600E00205C100020BD
:102AD00053280008600A00205C0E00202D28000802
:102AE0004090020018ED00E000E400E05C080020E7
:102AF0007B290008A5030020016821F00101016085
:102B00000021016041608160C1600161212141615A
:102B1000DB49884204D13D21D94A103A91608CE0CA
:102B2000D7491831884205D14FF47461D44A103A1C
:102B3000916082E0D2493031884205D14FF474115E
:102B4000CF4A103A916078E0CD494831884205D1AA
:102B50004FF07461CA4A103A91606EE0C849603122
:102B6000884204D1C749C64A103AD16065E0C449D9
:102B70007831884204D1C449C14A103AD1605CE03E
:102B8000BF499031884204D1C049BD4A103AD16052
:102B900053E0BB49A831884205D14FF03D51B84AB6
:102BA000103AD16049E0BA49884204D13D21B84A7F
:102BB000083A116041E0B6491831884205D14FF416
:102BC0007461B34A083A116037E0B1493031884244
:102BD00005D14FF47411AE4A083A11602DE0AC49AA
:102BE0004831884205D14FF07461A94A083A116012
:102BF00023E0A7496031884204D1A249A44A121FA8
:102C000011601AE0A2497831884204D19E49A04A55
:102C1000121F116011E09E499031884204D19B49F6
:102C20009B4A121F116008E09949A831884204D1DB
:102C30004FF03D51964A121F1160704710B50022A7
:102C40000268944B1A40CC680B6823434C692343B9
:102C50008C692343CC6923430C6A23434C6A234386
:102C60008C6A23434C6B23438C6B23431A430260CF
:102C7000426922F00702D1E90B3423431A4342612F
:102C80000B6943604B6883608B68C36010BD002193
:102C9000016041608160C160016141618161C16128
:102CA000016241628162C162016341638163704775
:102CB00021B1026842F00102026003E0026822F0E2
:102CC00001020260704721B1026842F400420260D2
:102CD00003E0026822F400420260704721B10268FA
:102CE00042F02002026003E0026822F0200202604B
:102CF0007047416070470146486880B2704722B112
:102D0000036843F40023036003E0036823F4002313
:102D100003600161704721B1026842F480220260C1
:102D200003E0026822F48022026070470AB1016168
:102D300000E0C1607047014600200A6802F40022EA
:102D40000AB1012000E000207047014600200A6817
:102D500002F001020AB1012000E0002070470146A4
:102D600000204A6902F03800704730B503460A4631
:102D700000200024464DAB4202D24149103901E007
:102D80004349103902F000550DB14C6800E00C6861
:102D9000414D2C4004EA02050DB1012000E0002065
:102DA00030BD02463A4B9A4202D23548103801E013
:102DB0003748103801F000531BB1374B0B40C3604C
:102DC00002E0354B0B408360704710B501F0800383
:102DD0004BB122B1436943F08003436103E043698F
:102DE00023F08003436180290BD02AB1036801F0EE
:102DF0001E042343036004E0036801F01E04A343A0
:102E0000036010BD70B50246002000240025204E4E
:102E1000B24202D21A4B103B01E01D4B103B1F4E39
:102E20000E4036B11E2606EAD124166806EA0405CD
:102E300002E0566906F0800501F000560EB15C68AC
:102E400000E01C68144E344004EA010616B10DB1CE
:102E5000012000E0002070BD02460D4B9A4202D2D4
:102E60000748103801E00A48103801F000531BB140
:102E7000094B0B40C36002E0074B0B408360704777
:102E8000106002403D000020400F002000003D2067
:102E9000106402403F801CF07D0F7D0F3C0F3C0F03
:102EA00010B504468C48844208D10121084600F040
:102EB0001CFB0021012000F018FB5EE087488442E3
:102EC00008D10121022000F010FB0021022000F0B7
:102ED0000CFB52E08248844208D10121042000F01A
:102EE00004FB0021042000F000FB46E07D48844202
:102EF00008D10121082000F0F8FA0021082000F094
:102F0000F4FA3AE07848844208D10121102000F018
:102F1000ECFA0021102000F0E8FA2EE07348844219
:102F200008D10121202000F0E0FA0021202000F04B
:102F3000DCFA22E06E48844208D10121402000F0F2
:102F4000D4FA0021402000F0D0FA16E0694884420B
:102F500008D10121802000F0C8FA0021802000F073
:102F6000C4FA0AE06448844207D10121801500F0C8
:102F7000BCFA0021A01500F0B8FA10BDF0B50A4661
:102F800000210023002400BF3DE0012505FA01F3E4
:102F9000156805EA03049C4234D105684F000326F6
:102FA000BE40B543056015794E00B540066835430F
:102FB00005601579012D02D01579022D16D185688D
:102FC0004F000326BE40B543856055794E00B5409D
:102FD000866835438560456801268E40B543456067
:102FE000456896798E40B6B235434560C5684F0056
:102FF0000326BE40B543C560D5794E00B540C668CE
:103000003543C560491C1029BFD3F0BD4FF6FF7191
:1030100001600021017141718171C171704708B572
:103020004FF480320092009A0A430092009AC261E3
:10303000C161009AC261C2690092C269009208BD72
:103040000246002013690B400BB1012000E0002074
:1030500070470146086980B27047024600205369F4
:103060000B400BB1012000E0002070470146486989
:1030700080B2704701837047418370470AB1018372
:1030800000E0418370474161704742694A404261B4
:103090007047F0B5002300244D07ED0E02FA05F34A
:1030A000CE1000F1200555F826504E07F70E0F26DA
:1030B000BE40B543CF1000F1200646F82750CE1091
:1030C00000F1200555F8265045EA0304CE1000F122
:1030D000200545F82640F0BD0000024000040240F3
:1030E00000080240000C02400010024000140240A0
:1030F00000180240001C02400020024070470121DD
:10310000C80200F0D0F980200949086000BFFEE73E
:1031100000BFFEE70121C80200F0C5F98020044984
:10312000086000BFFEE700BFFEE770477047000081
:10313000002C0040FA48006840F00100F84908609F
:103140000020F74908310860F5480068F549084053
:10315000F3490860F448091D0860081F006820F45E
:103160008020091F08600020ED490C31086070477D
:103170000021EB4A921C117011460870704710B57F
:1031800001460022002300204A11012A02D1E44C0A
:10319000236808E0022A03D1E14C7034236802E07E
:1031A000DF4C7434236801F01F02012494401C405A
:1031B0000CB1012000E0002010BD38B500200090C7
:1031C0000024002500BF3120FFF7D9FF05460098F5
:1031D000401C00900098B0F5A06F01D0002DF2D0F7
:1031E0003120FFF7CCFF08B1012400E00024204685
:1031F00038BD01460020CA4A106820F0F80040EAB5
:10320000C10010607047C949086070470021C44A76
:10321000703211701170012802D004280AD104E024
:103220000121BF4A7032117005E00521BC4A70329D
:10323000117000E000BF00BF7047BD4908607047D3
:1032400070B5049C41EA82150126C6EB530645EA97
:103250000645054345EA0465B14E361D356070BD2F
:10326000B24908667047820142EA0172AC4B84336E
:103270001A607047AD4988667047AC49C8647047AA
:1032800002460020A64B0833186820F0EC6042EAA2
:1032900001031843A24B0833186070470246002010
:1032A0009F4B0833186820F0784042EA0103184326
:1032B0009B4B08331860704701460020984A08323B
:1032C000106820F0030008431060704794480830ED
:1032D000006800F00C00704701460020904A083258
:1032E000106820F0F000084310607047014600208D
:1032F0008B4A0832106820F4E05008431060704791
:1033000001460020864A0832106820F4604040EAF6
:10331000C10010607047F0B5002100220024022592
:10332000002602237E4F08373F6807F00C0121B1C9
:10333000042905D0082937D105E07E4F076036E023
:103340007D4F076033E0764F3F1D3F68C7F38056DF
:10335000734F3F1D3F6807F03F036EB1764FB7FBD9
:10336000F3F7DFF8BCC10CF1040CDCF800C0CCF3BF
:10337000881C07FB0CF40CE06E4FB7FBF3F7DFF88B
:10338000A0C10CF1040CDCF800C0CCF3881C07FBD6
:103390000CF4634F3F1D3F68C7F301477F1C7D005E
:1033A000B4FBF5F7076002E0624F076000BF00BFA3
:1033B0005B4F08373F6807F0F00109095F4F7A5CFF
:1033C0000768D7404760564F08373F6807F4E05119
:1033D000890A5A4F7A5C4768D7408760504F083750
:1033E0003F6807F46041490B544F7A5C4768D74007
:1033F000C760F0BD002100F44072B2F5407F0AD1F1
:10340000474A0832116821F4F8114D4A024011432D
:10341000434A08321160424A70321268C0F30B030B
:103420001A433F4B70331A60704741494439086072
:1034300070473F494039086070474249086070470B
:1034400039B1374A303212680243354B30331A6093
:1034500006E0334A303212688243314B30331A600F
:10346000704739B12E4A3432126802432C4B343340
:103470001A6006E02A4A343212688243284B3433F9
:103480001A60704739B1264A383212680243244B19
:1034900038331A6006E0224A383212688243204BE1
:1034A00038331A60704739B11D4A403212680243FE
:1034B0001B4B40331A6006E0194A403212688243BF
:1034C000174B40331A60704739B1154A44321268BD
:1034D0000243134B44331A6006E0114A4432126827
:1034E00082430F4B44331A60704739B10C4A103293
:1034F000126802430A4B10331A6006E0084A103281
:1035000012688243064B10331A607047E1B1044AD7
:10351000143212680243024B14331A6019E000009F
:1035200000380240FFFFF6FE103000240000474242
:10353000800E47420024F40000127A00A40200200A
:10354000FFFCFF0F5C0147425B4A126882435A4B03
:103550001A60704739B1584A121D12680243564B1F
:103560001B1D1A6006E0544A121D12688243524B1A
:103570001B1D1A60704739B14F4A0C321268024362
:103580004D4B0C331A6006E04B4A0C3212688243F2
:10359000494B0C331A60704739B1474A10321268F0
:1035A0000243454B10331A6006E0434A103212685A
:1035B0008243414B10331A60704739B13E4A3C3266
:1035C000126802433C4B3C331A6006E03A4A3C32F4
:1035D00012688243384B3C331A60704739B1364A1F
:1035E000403212680243344B40331A6006E0324ADC
:1035F000403212688243304B40331A60704739B111
:103600002D4A4432126802432B4B44331A6006E0C1
:10361000294A443212688243274B44331A60704768
:1036200039B1254A4C3212680243234B4C331A609D
:1036300006E0214A4C32126882431F4B4C331A6019
:10364000704739B11C4A5032126802431A4B50334A
:103650001A6006E0184A503212688243164B503303
:103660001A60704739B1144AD21F12780243124BC4
:10367000DB1F1A7006E0104AD21F127882430E4BED
:10368000DB1F1A7070470C486030006840F0807093
:10369000094960310860704701460020064A083A2F
:1036A00012680A400AB1012000E000207047024978
:1036B000891F0870704700001438024010B5044696
:1036C000FE48844208D101210846FFF765FF00212A
:1036D0000120FFF761FF9DE0B4F1804F08D1012187
:1036E0000846FFF748FF00210120FFF744FF91E063
:1036F000F348844208D101210220FFF73CFF00215A
:103700000220FFF738FF85E0EE48844208D101210E
:103710000420FFF730FF00210420FFF72CFF79E0A1
:10372000E948844208D101210820FFF724FF002145
:103730000820FFF720FF6DE0E448844208D1012112
:103740001020FFF718FF00211020FFF714FF61E0A1
:10375000DF48844208D101212020FFF70CFF00211F
:103760002020FFF708FF55E0DA48844208D1012104
:103770000220FFF711FF00210220FFF70DFF49E0B3
:10378000D548844209D101210804FFF705FF002133
:103790004FF48030FFF700FF3CE0D048844209D16D
:1037A00001214804FFF7F8FE00214FF40030FFF735
:1037B000F3FE2FE0CA48844209D101218804FFF7B3
:1037C000EBFE00214FF48020FFF7E6FE22E0C54823
:1037D000844208D101214020FFF7CDFE0021402086
:1037E000FFF7C9FE16E0C048844208D101218020BD
:1037F000FFF7C1FE00218020FFF7BDFE0AE0BB48B5
:10380000844207D101218015FFF7B5FE0021A015E4
:10381000FFF7B1FE10BD00220288A84B98420ED0DF
:10382000AC4B98420BD0B0F1804F08D0A44B9842DB
:1038300005D0A44B984202D0A34B984204D14FF636
:103840008F731A404B881A43A04B984207D0A04B65
:10385000984204D04FF6FF431A400B891A43028066
:103860004B68C3620B880385944B984202D0994BF6
:10387000984201D18B7A03860123838270474FF0EF
:10388000FF314160002101800181418081727047D8
:103890000185828270470A46002101884FF68F73A6
:1038A000194011430180704741627047C1627047FF
:1038B0000146486A70470146088D704721B1028869
:1038C00042F00202028004E002884FF6FD731A40C3
:1038D0000280704721B1028842F00402028004E0B5
:1038E00002884FF6FB731A400280704721B10288AC
:1038F00042F08002028004E002884FF67F731A4093
:103900000280704702884FF6F7731A4002800288DF
:103910000A430280704702884FF6FF431A40028034
:1039200002880A430280704721B1028842F00102F6
:10393000028004E002884FF6FE731A40028070474E
:1039400070B5002400220023058C4FF6FE7635402A
:103950000584028C8388048B4FF68F752C40B51E2E
:103960002C400D882C43751E2A408D892A434D8892
:103970002A43524DA84202D0564DA84213D14FF6C9
:10398000F7752A40CD892A434FF6FB752A408D886A
:103990002A434FF6FF652B404FF6FF552B400D8A0B
:1039A0002B434D8A2B43838004838D6845630284B7
:1039B00070BD70B5002400220023058C4FF6EF7611
:1039C00035400584028C8388048B48F6FF752C40B3
:1039D0004FF6FF452C400D884FF6FF7606EA052589
:1039E0002C434FF6DF752A408D8906EA05152A43D8
:1039F0004D8806EA05152A43304DA84202D0354DC0
:103A0000A8421DD14FF67F752A40CD894FF6FF762B
:103A100006EA05152A434FF6BF752A408D8806EA47
:103A200005152A434FF6FF352B404FF2FF752B400B
:103A30000D8A06EA85052B434D8A06EA85052B4348
:103A4000838004838D688563028470BD70B5002413
:103A500000220023058C4FF6FF6635400584028C5A
:103A60008388848B4FF68F752C404FF6FC752C4065
:103A70000D882C434FF6FF552A408D894FF6FF766F
:103A800006EA05252A434D8806EA05252A430B4DFB
:103A9000A84202D00F4DA84238D14FF2FF752A40FC
:103AA000CD894FF6FF7606EA05252A434FF6FF3506
:103AB0002A408D8806EA05252A4319E000000140C6
:103AC0000004004000080040000C004000100040CE
:103AD0000014004000040140004001400044014047
:103AE0000048014000180040001C00400020004039
:103AF0004EF6FF752B404DF6FF752B400D8A06EAFA
:103B000005152B434D8A06EA05152B4383808483D4
:103B10008D68C563028470BD70B500220023002447
:103B2000058C4EF6FF7635400584038C8488828BA5
:103B300048F6FF752A404FF6FF452A400D884FF69C
:103B4000FF7606EA05252A434DF6FF752B408D8941
:103B500006EA05352B434D8806EA05352B43FE4D15
:103B6000A84202D0FD4DA84208D14BF6FF752C406B
:103B70000D8A4FF6FF7606EA85152C4384808283F2
:103B80008D680564038470BD0021018041808180BF
:103B900081608181C18101824182704770B5034695
:103BA000002000241846183001258D40ACB21D8C31
:103BB000A5431D8409B108290AD100EB61000568FD
:103BC0004FF68F76354005600568154305600FE0B8
:103BD0000D1FC5F34E052844056848F6FF763540AD
:103BE000056005684FF6FF7606EA02263543056054
:103BF00070BD4163704781637047C1637047016462
:103C000070470A460021018B4FF68F73194011430C
:103C1000018370470A460021018B48F6FF73194063
:103C20004FF6FF7303EA02231943018370470A46E4
:103C30000021818B4FF68F731940114381837047A8
:103C40000A460021818B48F6FF7319404FF6FF7337
:103C500003EA02231943818370470A460021018B3E
:103C60004FF6F77319401143018370470A4600214C
:103C7000018B4FF2FF7319404FF6FF7303EA0223E3
:103C80001943018370470A460021818B4FF6F77371
:103C900019401143818370470A460021818B4FF2FE
:103CA000FF7319404FF6FF7303EA02231943818320
:103CB00070470A460021018B4FF6FB7319401143F0
:103CC000018370470A460021018B4FF6FF331940EC
:103CD0004FF6FF7303EA02231943018370470A4634
:103CE0000021818B4FF6FB7319401143818370478C
:103CF0000A460021818B4FF6FF3319404FF6FF73C0
:103D000003EA02231943818370470A460021018B8D
:103D10004FF67F7319401143018370470A46002113
:103D2000018BC1F30E014FF6FF7303EA022319431F
:103D3000018370470A460021818B4FF67F7319403B
:103D40001143818370470A460021818BC1F30E0124
:103D50004FF6FF7303EA02231943818370470A4633
:103D60000021018C4FF6FD73194011430184704707
:103D70000A460021018C4FF6F77319401143018464
:103D800070470A460021018C4FF6DF7319404FF649
:103D9000FF7303EA02131943018470470A460021A6
:103DA000018C4FF67F7319404FF6FF7303EA02133D
:103DB0001943018470470A460021018C4FF6FF53D6
:103DC00019404FF6FF7303EA022319430184704739
:103DD0000A460021018C4FF2FF7319404FF6FF7322
:103DE00003EA02231943018470470A460021018C2B
:103DF0004DF6FF7319404FF6FF7303EA0233194380
:103E00000184704730B5002301248C40A3B2048C98
:103E10009C430484048C02FA01F5ADB22C43048463
:103E200030BD30B5002304248C40A3B2048C9C43E5
:103E30000484048C02FA01F5ADB22C43048430BD35
:103E4000828B4FF2FF331A408283828B4FF6FF73CF
:103E500003EA01231A4382837047F0B50C461546E6
:103E6000002100220026078C4EF6FF7C07EA0C0793
:103E70000784818B028C4FF6FF7707EA043640F601
:103E8000FF4739404FF6FF7707EA052739434FF6DA
:103E9000FF7707EA0337394345F6FF773A4046F4A0
:103EA00080573A4381830284F0BD828B4FF6F373CF
:103EB0001A408283828B0A4382837047F0B50C4696
:103EC0001546002100220026078C4FF6FF6C07EAFA
:103ED0000C070784818B028C4FF6FF7707EA0426D4
:103EE0004FF60C7739404FF6FF7707EA03172F4359
:103EF00039434FF2FF573A4046F480773A43818383
:103F00000284F0BD028B4FF2FF331A400283028B12
:103F10004FF6FF7303EA01231A4302837047F0B59B
:103F20000C461546002100220026078C4FF6EF7C38
:103F300007EA0C070784018B028C4FF6FF7707EA2C
:103F4000041640F6FF4739404FF6FF7707EA03377C
:103F500039434FF6FF7703E00000014000040140C1
:103F600007EA052739434FF65F773A4046F01007D6
:103F70003A4301830284F0BD028B4FF6F3731A407B
:103F80000283028B0A4302837047F0B50C46154644
:103F900000210022068C4FF6FE773E400684018BFE
:103FA000028C4FF60C7631407E1C06EA03162E4337
:103FB00031434FF6F576324044F001063243018337
:103FC0000284F0BD70B505460C46208850B923899F
:103FD000A28861882846FFF7D8FFE1882846FFF7C6
:103FE000CBFF25E0208804280AD12389A288618894
:103FF0002846FFF794FFE1882846FFF783FF17E084
:10400000208808280AD12389A28861882846FFF7DA
:1040100055FFE1882846FFF748FF09E02389A28879
:1040200061882846FFF719FFE1882846FFF708FF57
:1040300070BD002101804180012181800021C1806B
:10404000018170472DE9F04105460C460026012705
:10405000608808B9022600E00026A088012801D166
:10406000022700E001272088A0B92389A28861885F
:104070002846FFF78AFFE1882846FFF77DFF23895E
:104080003A4631462846FFF74AFFE1882846FFF7BF
:1040900039FF13E02389A28861882846FFF73FFF94
:1040A000E1882846FFF72EFF23893A463146284605
:1040B000FFF76BFFE1882846FFF75EFFBDE8F08160
:1040C0000146486B70470146886B70470146C86BD4
:1040D00070470146086C70470A884B881A438B88E2
:1040E0001A43CB881A430B891A434B891A438B898D
:1040F0001A43A0F84420704700210180418081804C
:10410000C180018141818181704731B1B0F8442083
:1041100042F40042A0F8442005E0B0F84420C2F385
:104120000E02A0F84420704721B1828842F00402B8
:10413000828004E082884FF6FB731A4082807047C9
:1041400021B1828842F00102828004E082884FF629
:10415000FE731A40828070471AB183890B438381B2
:1041600002E083898B4383817047818270470246D6
:104170000020138A0B400BB1012000E000207047A3
:10418000CA430282704730B5024600200023002453
:10419000158A05EA0103958905EA010413B10CB1FA
:1041A000012000E0002030BDCA430282704741EA8E
:1041B0000203A0F8483070471AB183890B4383810A
:1041C00002E083898B438381704721B1828842F06A
:1041D0000802828004E082884FF6F7731A408280DA
:1041E000704701894FF6F8721140018170470A4605
:1041F000002101894FF68F731940114301817047E7
:1042000030B504460D4629462046FFF7F0FF2089C9
:1042100040F00700208130BD2DE9F04104460D46F5
:1042200016461F46602D06D13B46012231462046E8
:10423000FFF775FE05E03B46012231462046FFF7B9
:10424000A4FE29462046FFF7D2FF208940F0070050
:104250002081BDE8F08130B50C4600210189C9B24A
:104260004FF6FF7505EA03251543254329430181D0
:1042700030BD2DE9F04105460E461746984600240C
:1042800043463A4631462846FFF7E5FF2C894FF66C
:10429000F870044044F007044FF68F70044044F077
:1042A00070042C81BDE8F081F0B504460D46164639
:1042B0001F463B46324629462046FFF7CCFF208961
:1042C00040F480402081F0BD82884FF68F731A4001
:1042D000828082880A438280704702894FF6F87391
:1042E0001A40028102890A430281704702894FF60F
:1042F0007F731A40028102890A4302817047F0B538
:104300000C4615461E460021002200230189028B1F
:10431000038C4FF6F877394021434FF6FC473A407B
:1043200040F201173A434FF6DD773B404FF6FF77F7
:1043300007EA06172F433B43018102830384F0BD44
:1043400021B1828842F08002828004E082884FF6A8
:104350007F731A4082807047A0F8501070470000A9
:1043600010B50446F748844208D101211020FFF718
:1043700013F900211020FFF70FF93EE0F2488442C4
:1043800009D101214804FFF7F6F800214FF400306D
:10439000FFF7F1F831E0ED48844209D101218804AA
:1043A000FFF7E9F800214FF48020FFF7E4F824E05C
:1043B000E748844209D10121C804FFF7DCF8002155
:1043C0004FF40020FFF7D7F817E0E248844209D104
:1043D00001210805FFF7CFF800214FF48010FFF707
:1043E000CAF80AE0DC48844207D101212020FFF707
:1043F000D3F800212020FFF7CFF810BD2DE9FF47AB
:1044000005460E460024A14600BFA046B08900B173
:1044100000BF2C8A24F44054F08804432C82AC89D9
:1044200041F20C608443B0883189084371890843A4
:104430000443AC81AC8A24F44074B0890443AC8258
:104440006846FEF768FFBF48854202D0C2488542F1
:1044500002D1DDF80C9001E0DDF80890A88900F4A5
:10446000004040B109EBC90000EB09103168490078
:10447000B0FBF1F707E009EBC90000EB0910316868
:104480008900B0FBF1F76420B7FBF0F004012009CC
:10449000642101FB1078A88900F4004040B132206B
:1044A00000EBC800B0FBF1F000F00700044308E0A7
:1044B000322000EB08106421B0FBF1F000F00F0097
:1044C00004432C81BDE8FF874FF4165101600021A1
:1044D0008180C18001810C2141810021818170474F
:1044E00010B502460020108A20F470600B884C88BA
:1044F00023438C882343CC8823431843108210BD68
:104500000021018041808180C180704721B1828972
:1045100042F40052828104E082894DF6FF731A4012
:1045200082817047028B02F47F420283028B0A432E
:104530000283704721B1828942F40042828103E004
:104540008289C2F30E028281704721B1828A42F4CD
:104550000062828204E0828A4FF2FF731A408282F4
:104560007047C1F308028280704701468888C0F313
:1045700008007047028A4FF6F0731A400282028ADE
:104580000A430282704721B1828942F0020282818D
:1045900004E082894FF6FD731A4082817047828958
:1045A0004FF2FF731A40828182890A4382817047E9
:1045B000028A4FF6DF731A400282028A0A4302829D
:1045C000704721B1028A42F48042028204E0028AEA
:1045D0004BF6FF731A4002827047818941F0010156
:1045E0008181704721B1828A42F00802828204E010
:1045F000828A4FF6F7731A4082827047028BD2B2DA
:104600000283028B42EA01220283704721B1828A2F
:1046100042F02002828204E0828A4FF6DF731A4061
:104620008282704721B1828A42F01002828204E0C5
:10463000828A4FF6EF731A4082827047828A4FF661
:10464000FB731A408282828A0A438282704721B1B8
:10465000828A42F00202828204E0828A4FF6FD736F
:104660001A40828270471AB1838A0B43838202E028
:10467000838A8B4383827047F0B50346002400266B
:104680000025002040F66A17B94200D100BF184645
:10469000C1F3421401F01F06012707FA06F5012CA9
:1046A00001D10C3004E0022C01D1103000E01430B4
:1046B0001AB107682F43076002E00768AF4307603D
:1046C000F0BD02460020B1F5007F00D100BF138885
:1046D0000B400BB1012000E00020704701F4007294
:1046E000B2F5007F00D100BFCA430280704770B5A9
:1046F0000246002400230025002040F66A16B1423D
:1047000000D100BFC1F3421501F01F03012606FAD4
:1047100003F3012D02D19689334006E0022D02D128
:10472000168A334001E0968A33400C12012606FABD
:1047300004F41688344013B10CB1012000E00020CD
:1047400070BD0000001001400044004000480040DF
:10475000004C0040005000400014014010B5002201
:10476000002340F66A14A14200D100BF0A120124BE
:104770009440A3B2DC43048010BD00000CB50020BF
:10478000019000907648006840F4803074490860D9
:1047900000BF7348006800F4003000900198401C8E
:1047A0000190009818B90198B0F5A06FF1D16C484C
:1047B000006800F4003010B10120009001E00020FA
:1047C00000900098012846D165484030006840F0CC
:1047D00080506349403108606248006840F44040BE
:1047E000604908605E48083000685D49083108602B
:1047F0000846006840F4004008600846006840F43D
:10480000A05008605848091F0860081F006840F061
:104810008070091F086000BF5148006800F00070F8
:104820000028F9D040F20560504908604C48083033
:10483000006820F003004A49083108600846006813
:1048400040F00200086000BF45480830006800F0F2
:104850000C000828F8D10CBD10B54548006840F49C
:104860007000434908603E48006840F001003C4940
:10487000086000203A4908310860394800683D491D
:104880000840374908603C48091D0860081F006857
:1048900020F48020091F0860002031490C31086095
:1048A000FFF76CFF4FF0006031498039086010BDA0
:1048B00070B500200022022300240221284D083573
:1048C0002D6805F00C0020B1042806D0082834D14A
:1048D00007E02A4D2A4E356033E02A4D284E3560D8
:1048E0002FE01F4D2D1D2D68C5F380541C4D2D1D2F
:1048F0002D6805F03F0154B1224DB5FBF1F5184E7E
:10490000361D3668C6F3881605FB06F209E01B4D16
:10491000B5FBF1F5124E361D3668C6F3881605FB59
:1049200006F20F4D2D1D2D68C5F301456D1C6B0062
:10493000B2FBF3F5124E356003E0104D104E3560BA
:1049400000BF00BF064D08352D68C5F303150E4E98
:10495000705D0B4D2D68C540094E356070BD00007F
:10496000003802400070004008544007003C0240FC
:1049700088ED00E0FFFFF6FE103000240024F40074
:10498000B402002000127A00B8020020704770477D
:104990001CB501210420FEF753FD042000900120E6
:1049A0008DF8040000208DF8060003208DF8050026
:1049B00000208DF807006946FE48FEF7DFFA1CBDAF
:1049C000FD480068FD490860FB48001D006848601C
:1049D000F948083000688860704770477047704732
:1049E0007047704710B50A46114602E0A1F5007302
:1049F00099B2B1F5007FF9DC03888B4205DAC1F585
:104A0000007304882344038002E003885B1A038058
:104A100010BD1CB500220021E94BDB6A9BB201935B
:104A200013B9002343801CBDBDF80430C3F50073E7
:104A30009BB200930388BDF80040A3420DDA0288C0
:104A40000388BDF80040E31A99B203880B44038041
:104A50000388C3F3080303800BE00388BDF800401C
:104A6000A34206DD02880388C3F5007399B20023D0
:104A70000380002904DDD34B13444360418001E0EF
:104A80000023438000BFCEE72DE9FF4F81B00446ED
:104A90008A469346DDF83880002700200090814642
:104AA000002500BF2046FFF7B4FF6088384487B276
:104AB000002666E0B9F1000F06D0B9F1010F1CD055
:104AC000B9F1020F5AD139E05D4510DA6068805DB6
:104AD0001AF80510884202D1681C85B206E000254C
:104AE0006088801B401E381A80B2009046E0002586
:104AF00009F101001FFA80F900BF1098854217DA0A
:104B00006068815D0F984155681C85B21098854298
:104B10000DDBB8F1000F0AD16088801B401E81B206
:104B20002046FFF75FFF012005B0BDE8F08F25E0CC
:104B3000002509F101001FFA80F900BF454511DA8F
:104B40006068815D0498405D814202D1681C85B235
:104B500008E04FF0000900256088801B401E381ACD
:104B600080B20090454508DB6088801B401E81B202
:104B70002046FFF737FF0120D6E700BF00BF701CBB
:104B800086B26088B04295DC608800288ADC009894
:104B9000381A81B22046FFF725FF0020C4E730B560
:104BA00085B004460D4688A00068049087A0006880
:104BB0000390012003AB042204A98DE8310084484E
:104BC000FFF762FF05B030BD70471CB5012104201E
:104BD000FEF736FC0420009001208DF80400002030
:104BE0008DF8060003208DF8050000208DF80700E1
:104BF00069467048FEF7C2F91CBD10B50A46114659
:104C000002E0A1F5007399B2B1F5007FF9DC0388E9
:104C10008B4205DAC1F5007304882344038002E067
:104C200003885B1A038010BD1CB500220021644B71
:104C30008C331B689BB2019313B9002343801CBDC6
:104C4000BDF80430C3F500739BB200930388BDF830
:104C50000040A3420DDA02880388BDF80040E31A41
:104C600099B203880B4403800388C3F308030380CD
:104C70000BE00388BDF80040A34206DD02880388EC
:104C8000C3F5007399B200230380002904DD514B62
:104C900013444360418001E00023438000BFCEE71E
:104CA0002DE9FF4F81B004468A469346DDF83880EF
:104CB0000027002000908146002500BF2046FFF716
:104CC000B3FF6088384487B2002666E0B9F1000F70
:104CD00006D0B9F1010F1CD0B9F1020F5AD139E059
:104CE0005D4510DA6068805D1AF80510884202D1CF
:104CF000681C85B206E000256088801B401E381ABB
:104D000080B2009046E0002509F101001FFA80F909
:104D100000BF1098854217DA6068815D0F98415591
:104D2000681C85B2109885420DDBB8F1000F0AD1DE
:104D30006088801B401E81B22046FFF75EFF012085
:104D400005B0BDE8F08F25E0002509F101001FFA4C
:104D500080F900BF454511DA6068815D0498405DC7
:104D6000814202D1681C85B208E04FF0000900259D
:104D70006088801B401E381A80B20090454508DBD1
:104D80006088801B401E81B22046FFF736FF01205D
:104D9000D6E700BF00BF701C86B26088B04295DCC9
:104DA000608800288ADC0098381A81B22046FFF714
:104DB00024FF11E000080240107AFF1F601200205B
:104DC00000600240A81A0020A55A11A4AA00000001
:104DD000CC020020E41E00200020B1E730B585B0F1
:104DE00004460D46FDA0006804900020039003AB2C
:104DF000022204A98DE83100F948FFF751FF05B000
:104E000030BD704710B50A46114602E0A1F50073A7
:104E100099B2B1F5007FF9DC03888B4205DAC1F560
:104E2000007304882344038002E003885B1A038034
:104E300010BD1CB500220021EA4B1B689BB20193F8
:104E400013B9002343801CBDBDF80430C3F50073C3
:104E50009BB200930388BDF80040A3420DDA02889C
:104E60000388BDF80040E31A99B203880B4403801D
:104E70000388C3F3080303800BE00388BDF80040F8
:104E8000A34206DD02880388C3F5007399B20023AC
:104E90000380002904DDD44B13444360418001E0CA
:104EA0000023438000BFCEE72DE9F04704460E46BD
:104EB000174699463D464FF0000800BF2046FFF7D1
:104EC000B8FF6088A8420DDC628806EB08006168C4
:104ED00005F020FC608840441FFA80F86088281A9A
:104EE00085B20CE06088401B81B22046FFF78AFF44
:104EF00006EB08002A46616805F00CFC0025002D31
:104F000002DD60880028D9DC781BA9F80000BDE824
:104F1000F0872DE9F84F0546894616461F460024BE
:104F2000A046A3460A98401E1FFA80FABAF5007FF1
:104F300001DB40F2FF1A012E02DA0020BDE8F88FF3
:104F400000BF2846FFF775FF688840441FFA80F8C5
:104F5000002000900FE0BDF800106868415C701EF2
:104F600019F80000814201D14FF0010BBDF800009B
:104F7000401C80B20090BBF1000F04D16888BDF8DE
:104F800000108842E7DCBDF80000204484B2BBF189
:104F9000000F25D04FF0000B544501DCB44208DA75
:104FA000A8EB040081B22846FFF72CFF0024A0469E
:104FB00016E041462846FFF725FF6B462246394654
:104FC0002846FFF771FF00203855A11BC81932464B
:104FD000494605F054FB08B92046AFE70024A04637
:104FE00068880028ADDCB8F1000F03DD4146284693
:104FF000FFF708FF0020A1E77FB504460D46002615
:105000007AA0006803902346022203A978480095FD
:10501000FFF77FFF002811DD76487749774A784B04
:10502000CDE900210290774A77A1204605F044FAA5
:10503000052801D1012000E000200646304604B0DA
:1050400070BD704700B58BB001210420FEF72BFA2C
:1050500001210220FEF7F4F94FF47070099002204C
:105060008DF8280003208DF8290000208DF82A00F3
:1050700001208DF82B0009A96A48FDF77FFF022265
:1050800006216848FEF705F8022207216548FEF769
:1050900000F8022208216348FDF7FBFF02220921E4
:1050A0006048FDF7F6FF4EF65F2007900D20ADF843
:1050B00018000020ADF82000ADF81A008DF822008D
:1050C00006A95948FEF7A7FB01A8FEF75DFD602081
:1050D000ADF804000120ADF806000020ADF8100086
:1050E00001A95148FEF72CFC08214F48FEF7B5FDF9
:1050F00001A94D48FEF75DFC08214B48FEF7B6FDBF
:1051000001A94948FEF7A2FC08214748FEF7BBFD6C
:1051100001A94548FEF700FD08214348FEF7BCFD04
:1051200001214148FEF7E2FB01213F48FEF7FCFB6D
:105130000BB000BD10B500213B48FEF7F5FB10BDDC
:1051400010B500213848FEF7EFFB10BD70477FB562
:1051500004460D46002625A000680390234602223F
:1051600003A932480095FFF7D4FE002811DD30482E
:105170003049314A314BCDE900210290304A31A10A
:10518000204605F099F9052801D1012000E0002012
:105190000646304604B070BD70477FB504460D46E4
:1051A000002612A0006803902346022203A92C487F
:1051B0000095FFF7AEFE00286EDD2A482A492B4AEB
:1051C0002B4BCDE9002102902A4A2BA1204605F065
:1051D00073F905285ED101205DE05DE0000F00005D
:1051E000D8020020446402406C1400200D0A000024
:1051F000E0020020F8020020F4020020F00200206B
:10520000EC020020E80200207069645F726F6C6C31
:105210003D25662C25662C25662C25662C25660DDD
:105220000A0000000004024000080040FC020020C8
:1052300014030020100300200C03002008030020AA
:10524000040300207069645F7961773D25662C2531
:10525000662C25662C25662C25660D0A00000000AC
:1052600018030020300300202C0300202803002016
:1052700024030020200300207069645F616C743D8A
:1052800025662C25662C25662C25662C25660D0AA0
:105290000000000000200646304604B070BD704794
:1052A0007CB504460D460026AFF2C00000680190B0
:1052B0002346022201A9F8480095FFF72AFE00289C
:1052C00009DDF64AF6A1204605F0F6F8012800D1DE
:1052D00000E00020064630467CBD70477CB50446A1
:1052E0000D460026AFF2FC00006801902346022222
:1052F00001A9EE480095FFF70CFE002808DDECA19F
:10530000204605F073FA08B9012000E000200646A7
:1053100030467CBD70477CB504460D460026AFF292
:105320003410006801902346022201A9E24800954A
:10533000FFF7EFFD002808DDE0A1204605F056FA52
:1053400008B9012000E00020064630467CBD7047C9
:105350002DE9FF4F81B004468A469346DDF8388038
:105360000027002000908146002500BF2046FFF75F
:1053700060FD6088384487B2002666E0B9F1000F0E
:1053800006D0B9F1010F1CD0B9F1020F5AD139E0A2
:105390005D4510DA6068805D1AF80510884202D118
:1053A000681C85B206E000256088801B401E381A04
:1053B00080B2009046E0002509F101001FFA80F953
:1053C00000BF1098854217DA6068815D0F984155DB
:1053D000681C85B2109885420DDBB8F1000F0AD128
:1053E0006088801B401E81B22046FFF70BFD012024
:1053F00005B0BDE8F08F25E0002509F101001FFA96
:1054000080F900BF454511DA6068815D0498405D10
:10541000814202D1681C85B208E04FF000090025E6
:105420006088801B401E381A80B20090454508DB1A
:105430006088801B401E81B22046FFF7E3FC0120FC
:10544000D6E700BF00BF701C86B26088B04295DC12
:10545000608800288ADC0098381A81B22046FFF75D
:10546000D1FC0020C4E710B597480078F0B100BF28
:105470004FF020519548FDF778FC0028F8D04021E6
:105480009348FFF71EF90028F2D04FF030518F48B3
:10549000FDF787FC00218D48FDF70AFC00228021E2
:1054A0008B48FFF7E0F800208749087086480078AD
:1054B00010BD10B50446002C17DDFFF7D4FF85485A
:1054C000046101468148FDF7B9FB01228021804833
:1054D000FFF7C9F840217E48FFF700F901217B481A
:1054E000FDF7E6FB01207849087010BD70B5054650
:1054F0000C46002C09DDFFF7B6FF22462946764808
:1055000005F008F92046FFF7D4FF70BD00B587B05D
:1055100001210846FDF794FF01211020FDF7D4FF7B
:1055200001218805FDF78CFF072209216B48FDF753
:10553000B0FD07220A216948FDF7ABFD00208DF878
:105540000A0001208DF80B0002208DF808000320CE
:105550008DF809004FF40070019001A95F48FDF734
:105560000DFD4FF48060019001A95C48FDF706FD38
:105570004FF4E13003900020ADF81000ADF81200B8
:10558000ADF81400ADF818000C20ADF8160001219C
:105590004F48FEF7CFFF03A94D48FEF72FFF01212B
:1055A0004B48FEF7B3FF4A48001D4A4948600020B7
:1055B00048614FF4806088610020C8610862C86259
:1055C000032008630020486388634FF00060086090
:1055D000434888600020C8604FF4007008614010A4
:1055E00048624FF44030886238487838FDF726FB2F
:1055F000012240213648FFF736F801213348783838
:10560000FDF756FB4FF00060324908603248886071
:105610004020C860C0000861002048624FF400309C
:10562000886200202849087007B000BD2DE9F047C6
:1056300004460E46174699463D464FF0000800BF07
:105640002046FFF7E6F96088A8420DDC628806EB89
:105650000800616805F05EF8608840441FFA80F831
:105660006088281A85B20CE06088401B81B2204611
:10567000FFF7B8F906EB08002A46616805F04AF81A
:105680000025002D02DD60880028D9DC781BA9F8F0
:105690000000BDE8F0870000340300203C03002038
:1056A0004C4544313D25750D0A00000040030020A3
:1056B00069640D0A00000000480300204D334320B8
:1056C000696E69740D0A000050030020B86402403E
:1056D000001001406C1800206C12002000000240F5
:1056E0006C1400202DE9F84F0546894616461F46E2
:1056F0000024A046A3460A98401E1FFA80FABAF575
:10570000007F01DB40F2FF1A012E02DA0020BDE823
:10571000F88F00BF2846FFF77CF9688840441FFADD
:1057200080F8002000900FE0BDF800106868415C30
:10573000701E19F80000814201D14FF0010BBDF835
:105740000000401C80B20090BBF1000F04D16888BB
:10575000BDF800108842E7DCBDF80000204484B2A8
:10576000BBF1000F25D04FF0000B544501DCB442D3
:1057700008DAA8EB040081B22846FFF733F90024C9
:10578000A04616E041462846FFF72CF96B46224614
:1057900039462846FFF74AFF00203855A11BC81993
:1057A0003246494604F06BFF08B92046AFE70024B3
:1057B000A04668880028ADDCB8F1000F03DD414643
:1057C0002846FFF70FF90020A1E710B5FE48007842
:1057D000F0B100BF4FF0C051FC48FDF7C6FA0028F9
:1057E000F8D04021FA48FEF76CFF0028F2D04FF0C5
:1057F000E051F648FDF7D5FA0021F448FDF758FAD4
:1058000000228021F248FEF72EFF0020EE490870AA
:10581000ED48007810BD10B50446002C17DDFFF7E9
:10582000D4FFEC4804610146E848FDF707FA01227D
:105830008021E748FEF717FF4021E548FEF74EFFBD
:105840000121E248FDF734FA0120DF49087010BD5C
:1058500070B505460C46002C09DDFFF7B6FF224661
:105860002946DD4804F056FF2046FFF7D4FF70BDFF
:1058700000B587B001210220FDF7E2FD0121880477
:10588000FDF711FE01214805FDF7DAFD07220A2187
:10589000D248FDF7FEFB07220B21D048FDF7F9FBAC
:1058A00000208DF80A0001208DF80B0002208DF8F1
:1058B000080003208DF809004FF48060019001A9D1
:1058C000C648FDF75BFB4FF40060019001A9C34897
:1058D000FDF754FB4FF4E13003900020ADF81000C9
:1058E000ADF81200ADF81400ADF818000C20ADF8BA
:1058F00016000121B648FEF71DFE03A9B448FEF7C5
:105900007DFD0121B248FEF701FEB148001DB149FD
:105910004860002048614FF4806088610020C861C1
:105920000862C862032008630020486388634FF060
:1059300000600860AA4888600020C8604FF40070CA
:105940000861401048624FF4403088629F48303808
:10595000FDF774F9012240219D48FEF784FE0121E4
:105960009A483038FDF7A4F94FF000609949086073
:10597000994888604020C860C000086100204862E3
:105980004FF40030886200208F49087007B000BDD6
:105990002DE9F04704460E46174699463D464FF01E
:1059A000000800BF2046FFF73FF96088A8420DDCE1
:1059B000628806EB0800616804F0ACFE6088404431
:1059C0001FFA80F86088281A85B20CE06088401BB6
:1059D00081B22046FFF711F906EB08002A466168FC
:1059E00004F098FE0025002D02DD60880028D9DC37
:1059F000781BA9F80000BDE8F0872DE9F84F0546AF
:105A0000894616461F460024A046A3460A98401E13
:105A10001FFA80FABAF5007F01DB40F2FF1A012E6F
:105A200002DA0020BDE8F88F00BF2846FFF7FCF837
:105A3000688840441FFA80F8002000900FE0BDF80D
:105A400000106868415C701E19F80000814201D1A5
:105A50004FF0010BBDF80000401C80B20090BBF17C
:105A6000000F04D16888BDF800108842E7DCBDF85B
:105A70000000204484B2BBF1000F25D04FF0000B92
:105A8000544501DCB44208DAA8EB040081B2284690
:105A9000FFF7B3F80024A04616E041462846FFF77A
:105AA000ACF86B46224639462846FFF771FF0020C6
:105AB0003855A11BC8193246494604F0E0FD08B923
:105AC0002046AFE70024A04668880028ADDCB8F186
:105AD000000F03DD41462846FFF78FF80020A1E7BD
